{
  "_format": "hh-sol-artifact-1",
  "contractName": "GratitudeGang",
  "sourceName": "contracts/GratitudeGang.sol",
  "abi": [
    {
      "inputs": [
        {
          "internalType": "string",
          "name": "uri",
          "type": "string"
        },
        {
          "internalType": "string",
          "name": "preview",
          "type": "string"
        }
      ],
      "stateMutability": "nonpayable",
      "type": "constructor"
    },
    {
      "inputs": [],
      "name": "AlreadyRedeemed",
      "type": "error"
    },
    {
      "inputs": [],
      "name": "ApprovalOwnerIsOperator",
      "type": "error"
    },
    {
      "inputs": [],
      "name": "ApprovalToCurrentOwner",
      "type": "error"
    },
    {
      "inputs": [],
      "name": "BalanceQueryZeroAddress",
      "type": "error"
    },
    {
      "inputs": [],
      "name": "ERC721ReceiverNotReceived",
      "type": "error"
    },
    {
      "inputs": [],
      "name": "InvalidAmount",
      "type": "error"
    },
    {
      "inputs": [],
      "name": "InvalidProof",
      "type": "error"
    },
    {
      "inputs": [],
      "name": "InvalidRecipient",
      "type": "error"
    },
    {
      "inputs": [],
      "name": "NoBaseURI",
      "type": "error"
    },
    {
      "inputs": [],
      "name": "NonExistentToken",
      "type": "error"
    },
    {
      "inputs": [],
      "name": "NotERC721Receiver",
      "type": "error"
    },
    {
      "inputs": [],
      "name": "NotOwnerOrApproved",
      "type": "error"
    },
    {
      "inputs": [],
      "name": "SaleNotStarted",
      "type": "error"
    },
    {
      "inputs": [],
      "name": "SaleStarted",
      "type": "error"
    },
    {
      "inputs": [],
      "name": "TransferFromNotOwner",
      "type": "error"
    },
    {
      "inputs": [],
      "name": "TransferToZeroAddress",
      "type": "error"
    },
    {
      "inputs": [],
      "name": "WhitelistNotStarted",
      "type": "error"
    },
    {
      "anonymous": false,
      "inputs": [
        {
          "indexed": true,
          "internalType": "address",
          "name": "owner",
          "type": "address"
        },
        {
          "indexed": true,
          "internalType": "address",
          "name": "approved",
          "type": "address"
        },
        {
          "indexed": true,
          "internalType": "uint256",
          "name": "tokenId",
          "type": "uint256"
        }
      ],
      "name": "Approval",
      "type": "event"
    },
    {
      "anonymous": false,
      "inputs": [
        {
          "indexed": true,
          "internalType": "address",
          "name": "owner",
          "type": "address"
        },
        {
          "indexed": true,
          "internalType": "address",
          "name": "operator",
          "type": "address"
        },
        {
          "indexed": false,
          "internalType": "bool",
          "name": "approved",
          "type": "bool"
        }
      ],
      "name": "ApprovalForAll",
      "type": "event"
    },
    {
      "anonymous": false,
      "inputs": [
        {
          "indexed": true,
          "internalType": "address",
          "name": "previousOwner",
          "type": "address"
        },
        {
          "indexed": true,
          "internalType": "address",
          "name": "newOwner",
          "type": "address"
        }
      ],
      "name": "OwnershipTransferred",
      "type": "event"
    },
    {
      "anonymous": false,
      "inputs": [
        {
          "indexed": true,
          "internalType": "address",
          "name": "from",
          "type": "address"
        },
        {
          "indexed": true,
          "internalType": "address",
          "name": "to",
          "type": "address"
        },
        {
          "indexed": true,
          "internalType": "uint256",
          "name": "tokenId",
          "type": "uint256"
        }
      ],
      "name": "Transfer",
      "type": "event"
    },
    {
      "inputs": [],
      "name": "MAX_PURCHASE",
      "outputs": [
        {
          "internalType": "uint8",
          "name": "",
          "type": "uint8"
        }
      ],
      "stateMutability": "view",
      "type": "function"
    },
    {
      "inputs": [],
      "name": "MAX_SUPPLY",
      "outputs": [
        {
          "internalType": "uint16",
          "name": "",
          "type": "uint16"
        }
      ],
      "stateMutability": "view",
      "type": "function"
    },
    {
      "inputs": [],
      "name": "SALE_PRICE",
      "outputs": [
        {
          "internalType": "uint256",
          "name": "",
          "type": "uint256"
        }
      ],
      "stateMutability": "view",
      "type": "function"
    },
    {
      "inputs": [],
      "name": "WHITELIST_PRICE",
      "outputs": [
        {
          "internalType": "uint256",
          "name": "",
          "type": "uint256"
        }
      ],
      "stateMutability": "view",
      "type": "function"
    },
    {
      "inputs": [
        {
          "internalType": "address",
          "name": "",
          "type": "address"
        }
      ],
      "name": "ambassadors",
      "outputs": [
        {
          "internalType": "bool",
          "name": "",
          "type": "bool"
        }
      ],
      "stateMutability": "view",
      "type": "function"
    },
    {
      "inputs": [
        {
          "internalType": "address",
          "name": "to",
          "type": "address"
        },
        {
          "internalType": "uint256",
          "name": "tokenId",
          "type": "uint256"
        }
      ],
      "name": "approve",
      "outputs": [],
      "stateMutability": "nonpayable",
      "type": "function"
    },
    {
      "inputs": [
        {
          "internalType": "uint256",
          "name": "quantity",
          "type": "uint256"
        },
        {
          "internalType": "bytes",
          "name": "proof",
          "type": "bytes"
        }
      ],
      "name": "authorize",
      "outputs": [],
      "stateMutability": "payable",
      "type": "function"
    },
    {
      "inputs": [
        {
          "internalType": "address",
          "name": "owner",
          "type": "address"
        }
      ],
      "name": "balanceOf",
      "outputs": [
        {
          "internalType": "uint256",
          "name": "",
          "type": "uint256"
        }
      ],
      "stateMutability": "view",
      "type": "function"
    },
    {
      "inputs": [],
      "name": "baseTokenURI",
      "outputs": [
        {
          "internalType": "string",
          "name": "",
          "type": "string"
        }
      ],
      "stateMutability": "view",
      "type": "function"
    },
    {
      "inputs": [],
      "name": "contractURI",
      "outputs": [
        {
          "internalType": "string",
          "name": "",
          "type": "string"
        }
      ],
      "stateMutability": "view",
      "type": "function"
    },
    {
      "inputs": [
        {
          "internalType": "uint256",
          "name": "",
          "type": "uint256"
        }
      ],
      "name": "customURI",
      "outputs": [
        {
          "internalType": "string",
          "name": "",
          "type": "string"
        }
      ],
      "stateMutability": "view",
      "type": "function"
    },
    {
      "inputs": [
        {
          "internalType": "uint256",
          "name": "tokenId",
          "type": "uint256"
        }
      ],
      "name": "getApproved",
      "outputs": [
        {
          "internalType": "address",
          "name": "",
          "type": "address"
        }
      ],
      "stateMutability": "view",
      "type": "function"
    },
    {
      "inputs": [],
      "name": "indexOffset",
      "outputs": [
        {
          "internalType": "uint16",
          "name": "",
          "type": "uint16"
        }
      ],
      "stateMutability": "view",
      "type": "function"
    },
    {
      "inputs": [
        {
          "internalType": "address",
          "name": "owner",
          "type": "address"
        },
        {
          "internalType": "address",
          "name": "operator",
          "type": "address"
        }
      ],
      "name": "isApprovedForAll",
      "outputs": [
        {
          "internalType": "bool",
          "name": "",
          "type": "bool"
        }
      ],
      "stateMutability": "view",
      "type": "function"
    },
    {
      "inputs": [],
      "name": "lastTokenId",
      "outputs": [
        {
          "internalType": "uint256",
          "name": "",
          "type": "uint256"
        }
      ],
      "stateMutability": "view",
      "type": "function"
    },
    {
      "inputs": [
        {
          "internalType": "uint256",
          "name": "quantity",
          "type": "uint256"
        }
      ],
      "name": "mint",
      "outputs": [],
      "stateMutability": "payable",
      "type": "function"
    },
    {
      "inputs": [
        {
          "internalType": "address",
          "name": "",
          "type": "address"
        }
      ],
      "name": "minted",
      "outputs": [
        {
          "internalType": "uint256",
          "name": "",
          "type": "uint256"
        }
      ],
      "stateMutability": "view",
      "type": "function"
    },
    {
      "inputs": [],
      "name": "name",
      "outputs": [
        {
          "internalType": "string",
          "name": "",
          "type": "string"
        }
      ],
      "stateMutability": "view",
      "type": "function"
    },
    {
      "inputs": [],
      "name": "owner",
      "outputs": [
        {
          "internalType": "address",
          "name": "",
          "type": "address"
        }
      ],
      "stateMutability": "view",
      "type": "function"
    },
    {
      "inputs": [
        {
          "internalType": "uint256",
          "name": "tokenId",
          "type": "uint256"
        }
      ],
      "name": "ownerOf",
      "outputs": [
        {
          "internalType": "address",
          "name": "",
          "type": "address"
        }
      ],
      "stateMutability": "view",
      "type": "function"
    },
    {
      "inputs": [],
      "name": "previewURI",
      "outputs": [
        {
          "internalType": "string",
          "name": "",
          "type": "string"
        }
      ],
      "stateMutability": "view",
      "type": "function"
    },
    {
      "inputs": [
        {
          "internalType": "string",
          "name": "uri",
          "type": "string"
        },
        {
          "internalType": "bool",
          "name": "ambassador",
          "type": "bool"
        },
        {
          "internalType": "bytes",
          "name": "proof",
          "type": "bytes"
        }
      ],
      "name": "redeem",
      "outputs": [],
      "stateMutability": "nonpayable",
      "type": "function"
    },
    {
      "inputs": [],
      "name": "renounceOwnership",
      "outputs": [],
      "stateMutability": "nonpayable",
      "type": "function"
    },
    {
      "inputs": [
        {
          "internalType": "uint256",
          "name": "_tokenId",
          "type": "uint256"
        },
        {
          "internalType": "uint256",
          "name": "_salePrice",
          "type": "uint256"
        }
      ],
      "name": "royaltyInfo",
      "outputs": [
        {
          "internalType": "address",
          "name": "receiver",
          "type": "address"
        },
        {
          "internalType": "uint256",
          "name": "royaltyAmount",
          "type": "uint256"
        }
      ],
      "stateMutability": "view",
      "type": "function"
    },
    {
      "inputs": [
        {
          "internalType": "address",
          "name": "from",
          "type": "address"
        },
        {
          "internalType": "address",
          "name": "to",
          "type": "address"
        },
        {
          "internalType": "uint256",
          "name": "tokenId",
          "type": "uint256"
        }
      ],
      "name": "safeTransferFrom",
      "outputs": [],
      "stateMutability": "nonpayable",
      "type": "function"
    },
    {
      "inputs": [
        {
          "internalType": "address",
          "name": "from",
          "type": "address"
        },
        {
          "internalType": "address",
          "name": "to",
          "type": "address"
        },
        {
          "internalType": "uint256",
          "name": "tokenId",
          "type": "uint256"
        },
        {
          "internalType": "bytes",
          "name": "_data",
          "type": "bytes"
        }
      ],
      "name": "safeTransferFrom",
      "outputs": [],
      "stateMutability": "nonpayable",
      "type": "function"
    },
    {
      "inputs": [],
      "name": "saleStarted",
      "outputs": [
        {
          "internalType": "bool",
          "name": "",
          "type": "bool"
        }
      ],
      "stateMutability": "view",
      "type": "function"
    },
    {
      "inputs": [
        {
          "internalType": "address",
          "name": "operator",
          "type": "address"
        },
        {
          "internalType": "bool",
          "name": "approved",
          "type": "bool"
        }
      ],
      "name": "setApprovalForAll",
      "outputs": [],
      "stateMutability": "nonpayable",
      "type": "function"
    },
    {
      "inputs": [
        {
          "internalType": "string",
          "name": "uri",
          "type": "string"
        }
      ],
      "name": "setBaseURI",
      "outputs": [],
      "stateMutability": "nonpayable",
      "type": "function"
    },
    {
      "inputs": [
        {
          "internalType": "bool",
          "name": "start",
          "type": "bool"
        }
      ],
      "name": "startSale",
      "outputs": [],
      "stateMutability": "nonpayable",
      "type": "function"
    },
    {
      "inputs": [
        {
          "internalType": "bool",
          "name": "start",
          "type": "bool"
        }
      ],
      "name": "startWhitelist",
      "outputs": [],
      "stateMutability": "nonpayable",
      "type": "function"
    },
    {
      "inputs": [
        {
          "internalType": "bytes4",
          "name": "interfaceId",
          "type": "bytes4"
        }
      ],
      "name": "supportsInterface",
      "outputs": [
        {
          "internalType": "bool",
          "name": "",
          "type": "bool"
        }
      ],
      "stateMutability": "view",
      "type": "function"
    },
    {
      "inputs": [],
      "name": "symbol",
      "outputs": [
        {
          "internalType": "string",
          "name": "",
          "type": "string"
        }
      ],
      "stateMutability": "view",
      "type": "function"
    },
    {
      "inputs": [
        {
          "internalType": "uint256",
          "name": "tokenId",
          "type": "uint256"
        }
      ],
      "name": "tokenURI",
      "outputs": [
        {
          "internalType": "string",
          "name": "",
          "type": "string"
        }
      ],
      "stateMutability": "view",
      "type": "function"
    },
    {
      "inputs": [],
      "name": "totalSupply",
      "outputs": [
        {
          "internalType": "uint256",
          "name": "",
          "type": "uint256"
        }
      ],
      "stateMutability": "view",
      "type": "function"
    },
    {
      "inputs": [
        {
          "internalType": "address",
          "name": "from",
          "type": "address"
        },
        {
          "internalType": "address",
          "name": "to",
          "type": "address"
        },
        {
          "internalType": "uint256",
          "name": "tokenId",
          "type": "uint256"
        }
      ],
      "name": "transferFrom",
      "outputs": [],
      "stateMutability": "nonpayable",
      "type": "function"
    },
    {
      "inputs": [
        {
          "internalType": "address",
          "name": "newOwner",
          "type": "address"
        }
      ],
      "name": "transferOwnership",
      "outputs": [],
      "stateMutability": "nonpayable",
      "type": "function"
    },
    {
      "inputs": [],
      "name": "whitelistStarted",
      "outputs": [
        {
          "internalType": "bool",
          "name": "",
          "type": "bool"
        }
      ],
      "stateMutability": "view",
      "type": "function"
    },
    {
      "inputs": [],
      "name": "withdraw",
      "outputs": [],
      "stateMutability": "nonpayable",
      "type": "function"
    }
  ],
  "bytecode": "0x60806040523480156200001157600080fd5b5060405162002d7538038062002d758339810160408190526200003491620005d1565b6040518060400160405280600e81526020016d4772617469747564652047616e6760901b8152506040518060400160405280600981526020016847524154495455444560b81b81525062000097620000916200011760201b60201c565b6200011b565b600180558151620000b090600290602085019062000455565b508051620000c690600390602084019062000455565b505050620000da826200016b60201b60201c565b8051620000ef90600f90602084019062000455565b506200010f620001076000546001600160a01b031690565b600162000184565b505062000728565b3390565b600080546001600160a01b038381166001600160a01b0319831681178455604051919092169283917f8be0079c531659141344cd1fd0a4f28419497f9722a3daafe3b4186f6b6457e09190a35050565b80516200018090600a90602084019062000455565b5050565b62000180828260405180602001604052806000815250620001a660201b60201c565b620001b58383836001620001ba565b505050565b82620001d95760405163162908e360e11b815260040160405180910390fd5b6001600160a01b0384166200020157604051633a954ecd60e21b815260040160405180910390fd5b600060045460016200021491906200063b565b905060048054850190556001600160a01b03851660008181526006602090815260408083208054890190558483526005909152902080546001600160a01b0319169091179055808215620002fd5762000281866001600160a01b03166200034e60201b620013941760201c565b15620002fd5760005b85811015620002f45760405182906001600160a01b0389169060009060008051602062002d55833981519152908290a4620002c9600088848862000354565b620002e757604051631f11849560e21b815260040160405180910390fd5b600191820191016200028a565b50505062000348565b60005b858110156200033d5760405182906001600160a01b0389169060009060008051602062002d55833981519152908290a46001918201910162000300565b50620003469050565b505b50505050565b3b151590565b604051630a85bd0160e11b81526000906001600160a01b0385169063150b7a02906200038b90339089908890889060040162000662565b602060405180830381600087803b158015620003a657600080fd5b505af1925050508015620003d9575060408051601f3d908101601f19168201909252620003d691810190620006b8565b60015b62000438573d8080156200040a576040519150601f19603f3d011682016040523d82523d6000602084013e6200040f565b606091505b5080516200043057604051630568cbab60e01b815260040160405180910390fd5b805181602001fd5b6001600160e01b031916630a85bd0160e11b149050949350505050565b8280546200046390620006eb565b90600052602060002090601f016020900481019282620004875760008555620004d2565b82601f10620004a257805160ff1916838001178555620004d2565b82800160010185558215620004d2579182015b82811115620004d2578251825591602001919060010190620004b5565b50620004e0929150620004e4565b5090565b5b80821115620004e05760008155600101620004e5565b634e487b7160e01b600052604160045260246000fd5b60005b838110156200052e57818101518382015260200162000514565b83811115620003485750506000910152565b600082601f8301126200055257600080fd5b81516001600160401b03808211156200056f576200056f620004fb565b604051601f8301601f19908116603f011681019082821181831017156200059a576200059a620004fb565b81604052838152866020858801011115620005b457600080fd5b620005c784602083016020890162000511565b9695505050505050565b60008060408385031215620005e557600080fd5b82516001600160401b0380821115620005fd57600080fd5b6200060b8683870162000540565b935060208501519150808211156200062257600080fd5b50620006318582860162000540565b9150509250929050565b600082198211156200065d57634e487b7160e01b600052601160045260246000fd5b500190565b600060018060a01b038087168352808616602084015250836040830152608060608301528251806080840152620006a18160a085016020870162000511565b601f01601f19169190910160a00195945050505050565b600060208284031215620006cb57600080fd5b81516001600160e01b031981168114620006e457600080fd5b9392505050565b600181811c908216806200070057607f821691505b602082108114156200072257634e487b7160e01b600052602260045260246000fd5b50919050565b61261d80620007386000396000f3fe6080604052600436106102305760003560e01c80637146bd081161012e578063c009673f116100ab578063e8a3d4851161006f578063e8a3d48514610692578063e985e9c5146106a7578063f2fde38b146106c7578063f84ddf0b146106e7578063fd30d9a0146106fc57600080fd5b8063c009673f14610615578063c67c495114610628578063c87b56dd14610648578063d3ff166c14610668578063d547cfb71461067d57600080fd5b806395d89b41116100f257806395d89b411461058d5780639c4c557c146105a2578063a0712d68146105c2578063a22cb465146105d5578063b88d4fde146105f557600080fd5b80637146bd08146104f7578063715018a61461051e5780637f205a741461053357806383a75cd71461054f5780638da5cb5b1461056f57600080fd5b80632a55205a116101bc57806352dd38081161018057806352dd38081461045857806355f804b3146104785780635c474f9e146104985780636352211e146104b757806370a08231146104d757600080fd5b80632a55205a146103a157806332cb6b0c146103e0578063339159d3146104095780633ccfd60b1461042357806342842e0e1461043857600080fd5b806317e7f2951161020357806317e7f295146102e657806318160ddd1461030f5780631e7269c51461032457806323b872dd1461035157806328ce48a01461037157600080fd5b806301ffc9a71461023557806306fdde031461026a578063081812fc1461028c578063095ea7b3146102c4575b600080fd5b34801561024157600080fd5b50610255610250366004611f96565b610717565b60405190151581526020015b60405180910390f35b34801561027657600080fd5b5061027f610749565b604051610261919061200b565b34801561029857600080fd5b506102ac6102a736600461201e565b6107db565b6040516001600160a01b039091168152602001610261565b3480156102d057600080fd5b506102e46102df366004612053565b61081f565b005b3480156102f257600080fd5b5061030166b1a2bc2ec5000081565b604051908152602001610261565b34801561031b57600080fd5b506103016108af565b34801561033057600080fd5b5061030161033f36600461207d565b600c6020526000908152604090205481565b34801561035d57600080fd5b506102e461036c366004612098565b6108bf565b34801561037d57600080fd5b5061025561038c36600461207d565b600e6020526000908152604090205460ff1681565b3480156103ad57600080fd5b506103c16103bc3660046120d4565b6108cf565b604080516001600160a01b039093168352602083019190915201610261565b3480156103ec57600080fd5b506103f66108ae81565b60405161ffff9091168152602001610261565b34801561041557600080fd5b506010546102559060ff1681565b34801561042f57600080fd5b506102e4610928565b34801561044457600080fd5b506102e4610453366004612098565b610a57565b34801561046457600080fd5b506102e4610473366004612106565b610a72565b34801561048457600080fd5b506102e46104933660046121c4565b610aaf565b3480156104a457600080fd5b5060105461025590610100900460ff1681565b3480156104c357600080fd5b506102ac6104d236600461201e565b610ae5565b3480156104e357600080fd5b506103016104f236600461207d565b610ba2565b34801561050357600080fd5b5061050c600581565b60405160ff9091168152602001610261565b34801561052a57600080fd5b506102e4610be7565b34801561053f57600080fd5b5061030167011c37937e08000081565b34801561055b57600080fd5b5061027f61056a36600461201e565b610c1d565b34801561057b57600080fd5b506000546001600160a01b03166102ac565b34801561059957600080fd5b5061027f610cb7565b3480156105ae57600080fd5b506102e46105bd366004612106565b610cc6565b6102e46105d036600461201e565b610d0a565b3480156105e157600080fd5b506102e46105f03660046121f9565b610e19565b34801561060157600080fd5b506102e461061036600461222c565b610e24565b6102e4610623366004612294565b610e30565b34801561063457600080fd5b506102e46106433660046122db565b611035565b34801561065457600080fd5b5061027f61066336600461201e565b61113e565b34801561067457600080fd5b5061027f6112a8565b34801561068957600080fd5b5061027f6112b5565b34801561069e57600080fd5b5061027f6112bf565b3480156106b357600080fd5b506102556106c236600461234f565b6112ce565b3480156106d357600080fd5b506102e46106e236600461207d565b6112fc565b3480156106f357600080fd5b50600454610301565b34801561070857600080fd5b50600b546103f69061ffff1681565b60006001600160e01b0319821663152a902d60e11b141561073a57506001919050565b6107438261139a565b92915050565b60606002805461075890612379565b80601f016020809104026020016040519081016040528092919081815260200182805461078490612379565b80156107d15780601f106107a6576101008083540402835291602001916107d1565b820191906000526020600020905b8154815290600101906020018083116107b457829003601f168201915b5050505050905090565b60006107e6826113ea565b61080357604051634a1850bf60e11b815260040160405180910390fd5b506000908152600760205260409020546001600160a01b031690565b600061082a82610ae5565b9050806001600160a01b0316836001600160a01b0316141561085f5760405163250fdee360e21b815260040160405180910390fd5b336001600160a01b0382168114801590610880575061087e82826112ce565b155b1561089e5760405163250fdee360e21b815260040160405180910390fd5b6108a98484846113ff565b50505050565b60006108ba60045490565b905090565b6108ca83838361145b565b505050565b6000806108db846113ea565b6108f857604051634a1850bf60e11b815260040160405180910390fd5b6000546001600160a01b031661091c612710610916866103e86115e6565b906115f9565b915091505b9250929050565b6000546001600160a01b0316331461095b5760405162461bcd60e51b8152600401610952906123b4565b60405180910390fd5b600260015414156109ae5760405162461bcd60e51b815260206004820152601f60248201527f5265656e7472616e637947756172643a207265656e7472616e742063616c6c006044820152606401610952565b60026001556109bb611605565b516109d957604051630b45132b60e41b815260040160405180910390fd5b600b5461ffff16610a24576108ae6109f26001436123ff565b6109fc919061242c565b600b805461ffff191661ffff929092169182179055610a2457600b805461ffff191660011790555b60405133904780156108fc02916000818181858888f19350505050158015610a50573d6000803e3d6000fd5b5060018055565b6108ca83838360405180602001604052806000815250610e24565b6000546001600160a01b03163314610a9c5760405162461bcd60e51b8152600401610952906123b4565b6010805460ff1916911515919091179055565b6000546001600160a01b03163314610ad95760405162461bcd60e51b8152600401610952906123b4565b610ae28161160f565b50565b60008181526005602052604081205482906001600160a01b031615610b22576000908152600560205260409020546001600160a01b031692915050565b600081118015610b3457506004548111155b15610b88575b6000190180610b4857610b88565b6000818152600560205260409020546001600160a01b031615610b83576000908152600560205260409020546001600160a01b031692915050565b610b3a565b50604051634a1850bf60e11b815260040160405180910390fd5b60006001600160a01b038216610bcb576040516316285dcb60e11b815260040160405180910390fd5b506001600160a01b031660009081526006602052604090205490565b6000546001600160a01b03163314610c115760405162461bcd60e51b8152600401610952906123b4565b610c1b6000611622565b565b600d6020526000908152604090208054610c3690612379565b80601f0160208091040260200160405190810160405280929190818152602001828054610c6290612379565b8015610caf5780601f10610c8457610100808354040283529160200191610caf565b820191906000526020600020905b815481529060010190602001808311610c9257829003601f168201915b505050505081565b60606003805461075890612379565b6000546001600160a01b03163314610cf05760405162461bcd60e51b8152600401610952906123b4565b601080549115156101000261ff0019909216919091179055565b3380610d2957604051634e46966960e11b815260040160405180910390fd5b601054610100900460ff16610d51576040516316851a3760e11b815260040160405180910390fd5b811580610d8257506001600160a01b0381166000908152600c6020526040902054600590610d80908490611672565b115b80610d9d575034610d9b8367011c37937e0800006115e6565b115b80610dbc57506108ae82610db060045490565b610dba919061244d565b115b15610dda5760405163162908e360e11b815260040160405180910390fd5b6001600160a01b0381166000908152600c60205260408120805460ff85169290610e0590849061244d565b90915550610e159050818361167e565b5050565b610e15338383611698565b6108a984848484611738565b3380610e4f57604051634e46966960e11b815260040160405180910390fd5b60105460ff16610e72576040516318f35a5f60e01b815260040160405180910390fd5b601054610100900460ff1615610e9b5760405163912ee23d60e01b815260040160405180910390fd5b60005460405169185d5d1a1bdc9a5e995960b21b60208201526bffffffffffffffffffffffff19606084901b16602a8201526001600160a01b0390911690610f4b90610f4590603e015b60408051601f1981840301815282825280516020918201207f19457468657265756d205369676e6564204d6573736167653a0a33320000000084830152603c8085019190915282518085039091018152605c909301909152815191012090565b84611783565b6001600160a01b031614610f72576040516309bde33960e01b815260040160405180910390fd5b821580610fa357506001600160a01b0381166000908152600c6020526040902054600590610fa1908590611672565b115b80610fbd575034610fbb8466b1a2bc2ec500006115e6565b115b80610fdc57506108ae83610fd060045490565b610fda919061244d565b115b15610ffa5760405163162908e360e11b815260040160405180910390fd5b6001600160a01b0381166000908152600c60205260408120805460ff8616929061102590849061244d565b909155506108ca9050818461167e565b336000818152600e602052604090205460ff1615611066576040516306d3830f60e21b815260040160405180910390fd5b6000546001600160a01b03166001600160a01b0316611096610f45868487604051602001610ee593929190612465565b6001600160a01b0316146110bd576040516309bde33960e01b815260040160405180910390fd5b60006110c860045490565b6110d390600161244d565b905083156110eb576110e682600161167e565b6110f6565b6110f682600461167e565b6000818152600d60209081526040909120865161111592880190611ee7565b50506001600160a01b03166000908152600e60205260409020805460ff19166001179055505050565b6060611149826113ea565b61116657604051634a1850bf60e11b815260040160405180910390fd5b6000828152600d60205260408120805461117f90612379565b90501115611225576000828152600d6020526040902080546111a090612379565b80601f01602080910402602001604051908101604052809291908181526020018280546111cc90612379565b80156112195780601f106111ee57610100808354040283529160200191611219565b820191906000526020600020905b8154815290600101906020018083116111fc57829003601f168201915b50505050509050919050565b600b5461ffff1661123d57600f80546111a090612379565b600b5460009061126d90600190611267906108ae9061126190889061ffff16611672565b906117a7565b90611672565b90506112776112b5565b611280826117b3565b6040516020016112919291906124c0565b604051602081830303815290604052915050919050565b600f8054610c3690612379565b60606108ba611605565b6060600a805461075890612379565b6001600160a01b03918216600090815260086020908152604080832093909416825291909152205460ff1690565b6000546001600160a01b031633146113265760405162461bcd60e51b8152600401610952906123b4565b6001600160a01b03811661138b5760405162461bcd60e51b815260206004820152602660248201527f4f776e61626c653a206e6577206f776e657220697320746865207a65726f206160448201526564647265737360d01b6064820152608401610952565b610ae281611622565b3b151590565b60006001600160e01b031982166380ac58cd60e01b14806113cb57506001600160e01b03198216635b5e139f60e01b145b8061074357506301ffc9a760e01b6001600160e01b0319831614610743565b60008082118015610743575050600454101590565b60008281526007602052604080822080546001600160a01b0319166001600160a01b0387811691821790925591518593918516917f8c5be1e5ebec7d5bd14f71427d1e84f3dd0314c0f7b2291e5b200ac8c7c3b92591a4505050565b6001600160a01b03821661148257604051633a954ecd60e21b815260040160405180910390fd5b600061148d82610ae5565b9050806001600160a01b0316846001600160a01b0316146114c157604051630d107db160e21b815260040160405180910390fd5b6114cc3383836118b9565b6114e957604051636d8a29e760e11b815260040160405180910390fd5b6114f5600083866113ff565b6001600160a01b03808416600081815260066020908152604080832080546001908101909155948916835280832080546000190190558683526005909152902080546001600160a01b031916909117905560045490830190811180159061157157506000818152600560205260409020546001600160a01b0316155b1561159e57600081815260056020526040902080546001600160a01b0319166001600160a01b0387161790555b5081836001600160a01b0316856001600160a01b03167fddf252ad1be2c89b69c2b068fc378daa952ba7f163c4a11628f55a4df523b3ef60405160405180910390a450505050565b60006115f282846124ff565b9392505050565b60006115f2828461251e565b60606108ba611904565b8051610e15906009906020840190611ee7565b600080546001600160a01b038381166001600160a01b0319831681178455604051919092169283917f8be0079c531659141344cd1fd0a4f28419497f9722a3daafe3b4186f6b6457e09190a35050565b60006115f2828461244d565b610e15828260405180602001604052806000815250611913565b816001600160a01b0316836001600160a01b031614156116cb5760405163079f14e360e51b815260040160405180910390fd5b6001600160a01b03838116600081815260086020908152604080832094871680845294825291829020805460ff191686151590811790915591519182527f17307eab39ab6107e8899845ad3d59bd9653f200f220920489ca2b5937696c31910160405180910390a3505050565b61174384848461145b565b6001600160a01b0383163b15158015611765575061176384848484611920565b155b156108a957604051631f11849560e21b815260040160405180910390fd5b60008060006117928585611a17565b9150915061179f81611a84565b509392505050565b60006115f28284612532565b6060816117d75750506040805180820190915260018152600360fc1b602082015290565b8160005b811561180157806117eb81612546565b91506117fa9050600a8361251e565b91506117db565b60008167ffffffffffffffff81111561181c5761181c612121565b6040519080825280601f01601f191660200182016040528015611846576020820181803683370190505b5090505b84156118b15761185b6001836123ff565b9150611868600a86612532565b61187390603061244d565b60f81b81838151811061188857611888612561565b60200101906001600160f81b031916908160001a9053506118aa600a8661251e565b945061184a565b949350505050565b6000816001600160a01b0316846001600160a01b031614806118f45750836001600160a01b03166118e9846107db565b6001600160a01b0316145b806118b157506118b182856112ce565b60606009805461075890612379565b6108ca8383836001611c3f565b604051630a85bd0160e11b81526000906001600160a01b0385169063150b7a0290611955903390899088908890600401612577565b602060405180830381600087803b15801561196f57600080fd5b505af192505050801561199f575060408051601f3d908101601f1916820190925261199c918101906125b4565b60015b6119fa573d8080156119cd576040519150601f19603f3d011682016040523d82523d6000602084013e6119d2565b606091505b5080516119f257604051630568cbab60e01b815260040160405180910390fd5b805181602001fd5b6001600160e01b031916630a85bd0160e11b149050949350505050565b600080825160411415611a4e5760208301516040840151606085015160001a611a4287828585611dcb565b94509450505050610921565b825160401415611a785760208301516040840151611a6d868383611eb8565b935093505050610921565b50600090506002610921565b6000816004811115611a9857611a986125d1565b1415611aa15750565b6001816004811115611ab557611ab56125d1565b1415611b035760405162461bcd60e51b815260206004820152601860248201527f45434453413a20696e76616c6964207369676e617475726500000000000000006044820152606401610952565b6002816004811115611b1757611b176125d1565b1415611b655760405162461bcd60e51b815260206004820152601f60248201527f45434453413a20696e76616c6964207369676e6174757265206c656e677468006044820152606401610952565b6003816004811115611b7957611b796125d1565b1415611bd25760405162461bcd60e51b815260206004820152602260248201527f45434453413a20696e76616c6964207369676e6174757265202773272076616c604482015261756560f01b6064820152608401610952565b6004816004811115611be657611be66125d1565b1415610ae25760405162461bcd60e51b815260206004820152602260248201527f45434453413a20696e76616c6964207369676e6174757265202776272076616c604482015261756560f01b6064820152608401610952565b82611c5d5760405163162908e360e11b815260040160405180910390fd5b6001600160a01b038416611c8457604051633a954ecd60e21b815260040160405180910390fd5b60006004546001611c95919061244d565b905060048054850190556001600160a01b03851660008181526006602090815260408083208054890190558483526005909152902080546001600160a01b0319169091179055808215611d73576001600160a01b0386163b15611d735760005b85811015611d6b5760405182906001600160a01b038916906000907fddf252ad1be2c89b69c2b068fc378daa952ba7f163c4a11628f55a4df523b3ef908290a4611d426000888488611920565b611d5f57604051631f11849560e21b815260040160405180910390fd5b60019182019101611cf5565b5050506108a9565b60005b85811015611dc25760405182906001600160a01b038916906000907fddf252ad1be2c89b69c2b068fc378daa952ba7f163c4a11628f55a4df523b3ef908290a460019182019101611d76565b50505050505050565b6000807f7fffffffffffffffffffffffffffffff5d576e7357a4501ddfe92f46681b20a0831115611e025750600090506003611eaf565b8460ff16601b14158015611e1a57508460ff16601c14155b15611e2b5750600090506004611eaf565b6040805160008082526020820180845289905260ff881692820192909252606081018690526080810185905260019060a0016020604051602081039080840390855afa158015611e7f573d6000803e3d6000fd5b5050604051601f1901519150506001600160a01b038116611ea857600060019250925050611eaf565b9150600090505b94509492505050565b6000806001600160ff1b03831660ff84901c601b01611ed987828885611dcb565b935093505050935093915050565b828054611ef390612379565b90600052602060002090601f016020900481019282611f155760008555611f5b565b82601f10611f2e57805160ff1916838001178555611f5b565b82800160010185558215611f5b579182015b82811115611f5b578251825591602001919060010190611f40565b50611f67929150611f6b565b5090565b5b80821115611f675760008155600101611f6c565b6001600160e01b031981168114610ae257600080fd5b600060208284031215611fa857600080fd5b81356115f281611f80565b60005b83811015611fce578181015183820152602001611fb6565b838111156108a95750506000910152565b60008151808452611ff7816020860160208601611fb3565b601f01601f19169290920160200192915050565b6020815260006115f26020830184611fdf565b60006020828403121561203057600080fd5b5035919050565b80356001600160a01b038116811461204e57600080fd5b919050565b6000806040838503121561206657600080fd5b61206f83612037565b946020939093013593505050565b60006020828403121561208f57600080fd5b6115f282612037565b6000806000606084860312156120ad57600080fd5b6120b684612037565b92506120c460208501612037565b9150604084013590509250925092565b600080604083850312156120e757600080fd5b50508035926020909101359150565b8035801515811461204e57600080fd5b60006020828403121561211857600080fd5b6115f2826120f6565b634e487b7160e01b600052604160045260246000fd5b600082601f83011261214857600080fd5b813567ffffffffffffffff8082111561216357612163612121565b604051601f8301601f19908116603f0116810190828211818310171561218b5761218b612121565b816040528381528660208588010111156121a457600080fd5b836020870160208301376000602085830101528094505050505092915050565b6000602082840312156121d657600080fd5b813567ffffffffffffffff8111156121ed57600080fd5b6118b184828501612137565b6000806040838503121561220c57600080fd5b61221583612037565b9150612223602084016120f6565b90509250929050565b6000806000806080858703121561224257600080fd5b61224b85612037565b935061225960208601612037565b925060408501359150606085013567ffffffffffffffff81111561227c57600080fd5b61228887828801612137565b91505092959194509250565b600080604083850312156122a757600080fd5b82359150602083013567ffffffffffffffff8111156122c557600080fd5b6122d185828601612137565b9150509250929050565b6000806000606084860312156122f057600080fd5b833567ffffffffffffffff8082111561230857600080fd5b61231487838801612137565b9450612322602087016120f6565b9350604086013591508082111561233857600080fd5b5061234586828701612137565b9150509250925092565b6000806040838503121561236257600080fd5b61236b83612037565b915061222360208401612037565b600181811c9082168061238d57607f821691505b602082108114156123ae57634e487b7160e01b600052602260045260246000fd5b50919050565b6020808252818101527f4f776e61626c653a2063616c6c6572206973206e6f7420746865206f776e6572604082015260600190565b634e487b7160e01b600052601160045260246000fd5b600082821015612411576124116123e9565b500390565b634e487b7160e01b600052601260045260246000fd5b600061ffff8084168061244157612441612416565b92169190910692915050565b60008219821115612460576124606123e9565b500190565b6972656465656d61626c6560b01b81526000845161248a81600a850160208901611fb3565b60609490941b6bffffffffffffffffffffffff1916600a929094019182019390935290151560f81b601e820152601f0192915050565b600083516124d2818460208801611fb3565b8351908301906124e6818360208801611fb3565b64173539b7b760d91b9101908152600501949350505050565b6000816000190483118215151615612519576125196123e9565b500290565b60008261252d5761252d612416565b500490565b60008261254157612541612416565b500690565b600060001982141561255a5761255a6123e9565b5060010190565b634e487b7160e01b600052603260045260246000fd5b6001600160a01b03858116825284166020820152604081018390526080606082018190526000906125aa90830184611fdf565b9695505050505050565b6000602082840312156125c657600080fd5b81516115f281611f80565b634e487b7160e01b600052602160045260246000fdfea2646970667358221220300bcd18775352e59fbfd227470161ebe03135d3dd5c8d146f2249acb16f6ae164736f6c63430008090033ddf252ad1be2c89b69c2b068fc378daa952ba7f163c4a11628f55a4df523b3ef",
  "linkReferences": {},
  "deployedLinkReferences": {}
}