{
  "_format": "hh-sol-artifact-1",
  "contractName": "GratitideCollection",
  "sourceName": "contracts/GratitideCollection.sol",
  "abi": [
    {
      "inputs": [
        {
          "internalType": "string",
          "name": "cid",
          "type": "string"
        }
      ],
      "stateMutability": "nonpayable",
      "type": "constructor"
    },
    {
      "anonymous": false,
      "inputs": [
        {
          "indexed": true,
          "internalType": "address",
          "name": "owner",
          "type": "address"
        },
        {
          "indexed": true,
          "internalType": "address",
          "name": "approved",
          "type": "address"
        },
        {
          "indexed": true,
          "internalType": "uint256",
          "name": "tokenId",
          "type": "uint256"
        }
      ],
      "name": "Approval",
      "type": "event"
    },
    {
      "anonymous": false,
      "inputs": [
        {
          "indexed": true,
          "internalType": "address",
          "name": "owner",
          "type": "address"
        },
        {
          "indexed": true,
          "internalType": "address",
          "name": "operator",
          "type": "address"
        },
        {
          "indexed": false,
          "internalType": "bool",
          "name": "approved",
          "type": "bool"
        }
      ],
      "name": "ApprovalForAll",
      "type": "event"
    },
    {
      "anonymous": false,
      "inputs": [
        {
          "indexed": false,
          "internalType": "address",
          "name": "account",
          "type": "address"
        }
      ],
      "name": "Paused",
      "type": "event"
    },
    {
      "anonymous": false,
      "inputs": [
        {
          "indexed": true,
          "internalType": "bytes32",
          "name": "role",
          "type": "bytes32"
        },
        {
          "indexed": true,
          "internalType": "bytes32",
          "name": "previousAdminRole",
          "type": "bytes32"
        },
        {
          "indexed": true,
          "internalType": "bytes32",
          "name": "newAdminRole",
          "type": "bytes32"
        }
      ],
      "name": "RoleAdminChanged",
      "type": "event"
    },
    {
      "anonymous": false,
      "inputs": [
        {
          "indexed": true,
          "internalType": "bytes32",
          "name": "role",
          "type": "bytes32"
        },
        {
          "indexed": true,
          "internalType": "address",
          "name": "account",
          "type": "address"
        },
        {
          "indexed": true,
          "internalType": "address",
          "name": "sender",
          "type": "address"
        }
      ],
      "name": "RoleGranted",
      "type": "event"
    },
    {
      "anonymous": false,
      "inputs": [
        {
          "indexed": true,
          "internalType": "bytes32",
          "name": "role",
          "type": "bytes32"
        },
        {
          "indexed": true,
          "internalType": "address",
          "name": "account",
          "type": "address"
        },
        {
          "indexed": true,
          "internalType": "address",
          "name": "sender",
          "type": "address"
        }
      ],
      "name": "RoleRevoked",
      "type": "event"
    },
    {
      "anonymous": false,
      "inputs": [
        {
          "indexed": true,
          "internalType": "address",
          "name": "from",
          "type": "address"
        },
        {
          "indexed": true,
          "internalType": "address",
          "name": "to",
          "type": "address"
        },
        {
          "indexed": true,
          "internalType": "uint256",
          "name": "tokenId",
          "type": "uint256"
        }
      ],
      "name": "Transfer",
      "type": "event"
    },
    {
      "anonymous": false,
      "inputs": [
        {
          "indexed": false,
          "internalType": "address",
          "name": "account",
          "type": "address"
        }
      ],
      "name": "Unpaused",
      "type": "event"
    },
    {
      "inputs": [],
      "name": "CID_FOLDER",
      "outputs": [
        {
          "internalType": "string",
          "name": "",
          "type": "string"
        }
      ],
      "stateMutability": "view",
      "type": "function"
    },
    {
      "inputs": [],
      "name": "CURATOR_ROLE",
      "outputs": [
        {
          "internalType": "bytes32",
          "name": "",
          "type": "bytes32"
        }
      ],
      "stateMutability": "view",
      "type": "function"
    },
    {
      "inputs": [],
      "name": "DEFAULT_ADMIN_ROLE",
      "outputs": [
        {
          "internalType": "bytes32",
          "name": "",
          "type": "bytes32"
        }
      ],
      "stateMutability": "view",
      "type": "function"
    },
    {
      "inputs": [],
      "name": "MAX_PURCHASE",
      "outputs": [
        {
          "internalType": "uint8",
          "name": "",
          "type": "uint8"
        }
      ],
      "stateMutability": "view",
      "type": "function"
    },
    {
      "inputs": [],
      "name": "MAX_SUPPLY",
      "outputs": [
        {
          "internalType": "uint16",
          "name": "",
          "type": "uint16"
        }
      ],
      "stateMutability": "view",
      "type": "function"
    },
    {
      "inputs": [],
      "name": "MINTER_ROLE",
      "outputs": [
        {
          "internalType": "bytes32",
          "name": "",
          "type": "bytes32"
        }
      ],
      "stateMutability": "view",
      "type": "function"
    },
    {
      "inputs": [],
      "name": "PAUSER_ROLE",
      "outputs": [
        {
          "internalType": "bytes32",
          "name": "",
          "type": "bytes32"
        }
      ],
      "stateMutability": "view",
      "type": "function"
    },
    {
      "inputs": [],
      "name": "SALE_PRICE",
      "outputs": [
        {
          "internalType": "uint256",
          "name": "",
          "type": "uint256"
        }
      ],
      "stateMutability": "view",
      "type": "function"
    },
    {
      "inputs": [],
      "name": "START_DATE",
      "outputs": [
        {
          "internalType": "uint64",
          "name": "",
          "type": "uint64"
        }
      ],
      "stateMutability": "view",
      "type": "function"
    },
    {
      "inputs": [
        {
          "internalType": "address",
          "name": "to",
          "type": "address"
        },
        {
          "internalType": "uint256",
          "name": "tokenId",
          "type": "uint256"
        }
      ],
      "name": "approve",
      "outputs": [],
      "stateMutability": "nonpayable",
      "type": "function"
    },
    {
      "inputs": [
        {
          "internalType": "address",
          "name": "owner",
          "type": "address"
        }
      ],
      "name": "balanceOf",
      "outputs": [
        {
          "internalType": "uint256",
          "name": "",
          "type": "uint256"
        }
      ],
      "stateMutability": "view",
      "type": "function"
    },
    {
      "inputs": [],
      "name": "baseTokenURI",
      "outputs": [
        {
          "internalType": "string",
          "name": "",
          "type": "string"
        }
      ],
      "stateMutability": "view",
      "type": "function"
    },
    {
      "inputs": [
        {
          "internalType": "uint256",
          "name": "tokenId",
          "type": "uint256"
        }
      ],
      "name": "burn",
      "outputs": [],
      "stateMutability": "nonpayable",
      "type": "function"
    },
    {
      "inputs": [],
      "name": "contractURI",
      "outputs": [
        {
          "internalType": "string",
          "name": "",
          "type": "string"
        }
      ],
      "stateMutability": "view",
      "type": "function"
    },
    {
      "inputs": [
        {
          "internalType": "uint256",
          "name": "tokenId",
          "type": "uint256"
        }
      ],
      "name": "getApproved",
      "outputs": [
        {
          "internalType": "address",
          "name": "",
          "type": "address"
        }
      ],
      "stateMutability": "view",
      "type": "function"
    },
    {
      "inputs": [
        {
          "internalType": "bytes32",
          "name": "role",
          "type": "bytes32"
        }
      ],
      "name": "getRoleAdmin",
      "outputs": [
        {
          "internalType": "bytes32",
          "name": "",
          "type": "bytes32"
        }
      ],
      "stateMutability": "view",
      "type": "function"
    },
    {
      "inputs": [
        {
          "internalType": "bytes32",
          "name": "role",
          "type": "bytes32"
        },
        {
          "internalType": "uint256",
          "name": "index",
          "type": "uint256"
        }
      ],
      "name": "getRoleMember",
      "outputs": [
        {
          "internalType": "address",
          "name": "",
          "type": "address"
        }
      ],
      "stateMutability": "view",
      "type": "function"
    },
    {
      "inputs": [
        {
          "internalType": "bytes32",
          "name": "role",
          "type": "bytes32"
        }
      ],
      "name": "getRoleMemberCount",
      "outputs": [
        {
          "internalType": "uint256",
          "name": "",
          "type": "uint256"
        }
      ],
      "stateMutability": "view",
      "type": "function"
    },
    {
      "inputs": [
        {
          "internalType": "bytes32",
          "name": "role",
          "type": "bytes32"
        },
        {
          "internalType": "address",
          "name": "account",
          "type": "address"
        }
      ],
      "name": "grantRole",
      "outputs": [],
      "stateMutability": "nonpayable",
      "type": "function"
    },
    {
      "inputs": [
        {
          "internalType": "bytes32",
          "name": "role",
          "type": "bytes32"
        },
        {
          "internalType": "address",
          "name": "account",
          "type": "address"
        }
      ],
      "name": "hasRole",
      "outputs": [
        {
          "internalType": "bool",
          "name": "",
          "type": "bool"
        }
      ],
      "stateMutability": "view",
      "type": "function"
    },
    {
      "inputs": [],
      "name": "indexOffset",
      "outputs": [
        {
          "internalType": "uint16",
          "name": "",
          "type": "uint16"
        }
      ],
      "stateMutability": "view",
      "type": "function"
    },
    {
      "inputs": [
        {
          "internalType": "address",
          "name": "owner",
          "type": "address"
        },
        {
          "internalType": "address",
          "name": "operator",
          "type": "address"
        }
      ],
      "name": "isApprovedForAll",
      "outputs": [
        {
          "internalType": "bool",
          "name": "",
          "type": "bool"
        }
      ],
      "stateMutability": "view",
      "type": "function"
    },
    {
      "inputs": [],
      "name": "lastId",
      "outputs": [
        {
          "internalType": "uint256",
          "name": "",
          "type": "uint256"
        }
      ],
      "stateMutability": "view",
      "type": "function"
    },
    {
      "inputs": [
        {
          "internalType": "uint256",
          "name": "quantity",
          "type": "uint256"
        }
      ],
      "name": "mint",
      "outputs": [],
      "stateMutability": "payable",
      "type": "function"
    },
    {
      "inputs": [],
      "name": "name",
      "outputs": [
        {
          "internalType": "string",
          "name": "",
          "type": "string"
        }
      ],
      "stateMutability": "view",
      "type": "function"
    },
    {
      "inputs": [
        {
          "internalType": "uint256",
          "name": "tokenId",
          "type": "uint256"
        }
      ],
      "name": "ownerOf",
      "outputs": [
        {
          "internalType": "address",
          "name": "",
          "type": "address"
        }
      ],
      "stateMutability": "view",
      "type": "function"
    },
    {
      "inputs": [],
      "name": "pause",
      "outputs": [],
      "stateMutability": "nonpayable",
      "type": "function"
    },
    {
      "inputs": [],
      "name": "paused",
      "outputs": [
        {
          "internalType": "bool",
          "name": "",
          "type": "bool"
        }
      ],
      "stateMutability": "view",
      "type": "function"
    },
    {
      "inputs": [
        {
          "internalType": "bytes32",
          "name": "role",
          "type": "bytes32"
        },
        {
          "internalType": "address",
          "name": "account",
          "type": "address"
        }
      ],
      "name": "renounceRole",
      "outputs": [],
      "stateMutability": "nonpayable",
      "type": "function"
    },
    {
      "inputs": [
        {
          "internalType": "bytes32",
          "name": "role",
          "type": "bytes32"
        },
        {
          "internalType": "address",
          "name": "account",
          "type": "address"
        }
      ],
      "name": "revokeRole",
      "outputs": [],
      "stateMutability": "nonpayable",
      "type": "function"
    },
    {
      "inputs": [
        {
          "internalType": "address",
          "name": "from",
          "type": "address"
        },
        {
          "internalType": "address",
          "name": "to",
          "type": "address"
        },
        {
          "internalType": "uint256",
          "name": "tokenId",
          "type": "uint256"
        }
      ],
      "name": "safeTransferFrom",
      "outputs": [],
      "stateMutability": "nonpayable",
      "type": "function"
    },
    {
      "inputs": [
        {
          "internalType": "address",
          "name": "from",
          "type": "address"
        },
        {
          "internalType": "address",
          "name": "to",
          "type": "address"
        },
        {
          "internalType": "uint256",
          "name": "tokenId",
          "type": "uint256"
        },
        {
          "internalType": "bytes",
          "name": "_data",
          "type": "bytes"
        }
      ],
      "name": "safeTransferFrom",
      "outputs": [],
      "stateMutability": "nonpayable",
      "type": "function"
    },
    {
      "inputs": [
        {
          "internalType": "address",
          "name": "operator",
          "type": "address"
        },
        {
          "internalType": "bool",
          "name": "approved",
          "type": "bool"
        }
      ],
      "name": "setApprovalForAll",
      "outputs": [],
      "stateMutability": "nonpayable",
      "type": "function"
    },
    {
      "inputs": [
        {
          "internalType": "string",
          "name": "uri",
          "type": "string"
        }
      ],
      "name": "setBaseTokenURI",
      "outputs": [],
      "stateMutability": "nonpayable",
      "type": "function"
    },
    {
      "inputs": [
        {
          "internalType": "bytes4",
          "name": "interfaceId",
          "type": "bytes4"
        }
      ],
      "name": "supportsInterface",
      "outputs": [
        {
          "internalType": "bool",
          "name": "",
          "type": "bool"
        }
      ],
      "stateMutability": "view",
      "type": "function"
    },
    {
      "inputs": [],
      "name": "symbol",
      "outputs": [
        {
          "internalType": "string",
          "name": "",
          "type": "string"
        }
      ],
      "stateMutability": "view",
      "type": "function"
    },
    {
      "inputs": [
        {
          "internalType": "uint256",
          "name": "index",
          "type": "uint256"
        }
      ],
      "name": "tokenByIndex",
      "outputs": [
        {
          "internalType": "uint256",
          "name": "",
          "type": "uint256"
        }
      ],
      "stateMutability": "view",
      "type": "function"
    },
    {
      "inputs": [
        {
          "internalType": "address",
          "name": "owner",
          "type": "address"
        },
        {
          "internalType": "uint256",
          "name": "index",
          "type": "uint256"
        }
      ],
      "name": "tokenOfOwnerByIndex",
      "outputs": [
        {
          "internalType": "uint256",
          "name": "",
          "type": "uint256"
        }
      ],
      "stateMutability": "view",
      "type": "function"
    },
    {
      "inputs": [
        {
          "internalType": "uint256",
          "name": "tokenId",
          "type": "uint256"
        }
      ],
      "name": "tokenURI",
      "outputs": [
        {
          "internalType": "string",
          "name": "",
          "type": "string"
        }
      ],
      "stateMutability": "view",
      "type": "function"
    },
    {
      "inputs": [],
      "name": "totalSupply",
      "outputs": [
        {
          "internalType": "uint256",
          "name": "",
          "type": "uint256"
        }
      ],
      "stateMutability": "view",
      "type": "function"
    },
    {
      "inputs": [
        {
          "internalType": "address",
          "name": "from",
          "type": "address"
        },
        {
          "internalType": "address",
          "name": "to",
          "type": "address"
        },
        {
          "internalType": "uint256",
          "name": "tokenId",
          "type": "uint256"
        }
      ],
      "name": "transferFrom",
      "outputs": [],
      "stateMutability": "nonpayable",
      "type": "function"
    },
    {
      "inputs": [],
      "name": "unpause",
      "outputs": [],
      "stateMutability": "nonpayable",
      "type": "function"
    },
    {
      "inputs": [],
      "name": "withdraw",
      "outputs": [],
      "stateMutability": "nonpayable",
      "type": "function"
    }
  ],
  "bytecode": "0x60a06040526000600d553480156200001657600080fd5b5060405162003eab38038062003eab833981016040819052620000399162000c26565b6040518060400160405280601481526020017f47726174697469646520436f6c6c656374696f6e0000000000000000000000008152506040518060400160405280600981526020016847524154495455444560b81b8152506108ae82828160029080519060200190620000ae92919062000b37565b508051620000c490600390602084019062000b37565b5050600c805460ff191690555061ffff8116608052620000e6600033620001bf565b620001127f65d7a28e3265b37a6474929f336521b332c1681b933f6cb9f3376673440d862a33620001bf565b6200013e7f9f2df0fed2c77648de5860a4cc508cd0818c85b8b8a1ab4ceeef8d981c8956a633620001bf565b6200016a7f850d585eb7f024ccee5e68e55f2c26cc72e1e6ee456acf62135757a5eb9d4a1033620001bf565b505060016010555080516200018790601190602084019062000b37565b503360005b6010811015620001b657620001a182620001cf565b80620001ad8162000cf4565b9150506200018c565b50505062000e39565b620001cb82826200026e565b5050565b60805161ffff16620001e0620002b1565b10620002335760405162461bcd60e51b815260206004820152601b60248201527f4d696e742071756f746120686173206265656e2072656163686564000000000060448201526064015b60405180910390fd5b6200024a600f620002cd60201b620014cf1760201c565b6200025f8162000259620002d6565b620002ef565b6200026b600162000311565b50565b6200028582826200032d60201b620014d81760201c565b6000828152600160209081526040909120620002ac9183906200155c620003cd821b17901c565b505050565b6000620002c8620003ed60201b620015711760201c565b905090565b80546001019055565b6000620002c8600f620003f360201b620015771760201c565b620001cb828260405180602001604052806000815250620003f760201b60201c565b80600d600082825462000325919062000d12565b909155505050565b6000828152602081815260408083206001600160a01b038516845290915290205460ff16620001cb576000828152602081815260408083206001600160a01b03851684529091529020805460ff19166001179055620003893390565b6001600160a01b0316816001600160a01b0316837f2f8788117e7eff1d82e926ec794901d17c78024a50270940304540a733656f0d60405160405180910390a45050565b6000620003e4836001600160a01b0384166200046a565b90505b92915050565b600d5490565b5490565b620004038383620004bc565b62000412600084848462000612565b620002ac5760405162461bcd60e51b8152602060048201526032602482015260008051602062003e8b83398151915260448201527131b2b4bb32b91034b6b83632b6b2b73a32b960711b60648201526084016200022a565b6000818152600183016020526040812054620004b357508154600181810184556000848152602080822090930184905584548482528286019093526040902091909155620003e7565b506000620003e7565b6001600160a01b038216620005145760405162461bcd60e51b815260206004820181905260248201527f4552433732313a206d696e7420746f20746865207a65726f206164647265737360448201526064016200022a565b6000818152600460205260409020546001600160a01b0316156200057b5760405162461bcd60e51b815260206004820152601c60248201527f4552433732313a20746f6b656e20616c7265616479206d696e7465640000000060448201526064016200022a565b62000589600083836200077b565b6001600160a01b0382166000908152600560205260408120805460019290620005b490849062000d12565b909155505060008181526004602052604080822080546001600160a01b0319166001600160a01b03861690811790915590518392907fddf252ad1be2c89b69c2b068fc378daa952ba7f163c4a11628f55a4df523b3ef908290a45050565b600062000633846001600160a01b03166200079360201b6200157b1760201c565b156200076f57604051630a85bd0160e11b81526001600160a01b0385169063150b7a02906200066d90339089908890889060040162000d2d565b602060405180830381600087803b1580156200068857600080fd5b505af1925050508015620006bb575060408051601f3d908101601f19168201909252620006b89181019062000d83565b60015b62000754573d808015620006ec576040519150601f19603f3d011682016040523d82523d6000602084013e620006f1565b606091505b5080516200074c5760405162461bcd60e51b8152602060048201526032602482015260008051602062003e8b83398151915260448201527131b2b4bb32b91034b6b83632b6b2b73a32b960711b60648201526084016200022a565b805181602001fd5b6001600160e01b031916630a85bd0160e11b14905062000773565b5060015b949350505050565b620002ac8383836200079960201b620015811760201c565b3b151590565b620007b18383836200081a60201b620015f31760201c565b600c5460ff1615620002ac5760405162461bcd60e51b815260206004820152602b60248201527f4552433732315061757361626c653a20746f6b656e207472616e73666572207760448201526a1a1a5b19481c185d5cd95960aa1b60648201526084016200022a565b62000832838383620002ac60201b620009f21760201c565b6001600160a01b03831662000890576200088a81600a80546000838152600b60205260408120829055600182018355919091527fc65a7bb8d6351c1cf70c95a316cc6a92839c986682d98bc35f958f4883f9d2a80155565b620008b6565b816001600160a01b0316836001600160a01b031614620008b657620008b68382620008f6565b6001600160a01b038216620008d057620002ac81620009a3565b826001600160a01b0316826001600160a01b031614620002ac57620002ac828262000a5d565b60006001620009108462000aae60201b62000e0d1760201c565b6200091c919062000db6565b60008381526009602052604090205490915080821462000970576001600160a01b03841660009081526008602090815260408083208584528252808320548484528184208190558352600990915290208190555b5060009182526009602090815260408084208490556001600160a01b039094168352600881528383209183525290812055565b600a54600090620009b79060019062000db6565b6000838152600b6020526040812054600a8054939450909284908110620009e257620009e262000dd0565b9060005260206000200154905080600a838154811062000a065762000a0662000dd0565b6000918252602080832090910192909255828152600b9091526040808220849055858252812055600a80548062000a415762000a4162000de6565b6001900381819060005260206000200160009055905550505050565b600062000a758362000aae60201b62000e0d1760201c565b6001600160a01b039093166000908152600860209081526040808320868452825280832085905593825260099052919091209190915550565b60006001600160a01b03821662000b1b5760405162461bcd60e51b815260206004820152602a60248201527f4552433732313a2062616c616e636520717565727920666f7220746865207a65604482015269726f206164647265737360b01b60648201526084016200022a565b506001600160a01b031660009081526005602052604090205490565b82805462000b459062000dfc565b90600052602060002090601f01602090048101928262000b69576000855562000bb4565b82601f1062000b8457805160ff191683800117855562000bb4565b8280016001018555821562000bb4579182015b8281111562000bb457825182559160200191906001019062000b97565b5062000bc292915062000bc6565b5090565b5b8082111562000bc2576000815560010162000bc7565b634e487b7160e01b600052604160045260246000fd5b60005b8381101562000c1057818101518382015260200162000bf6565b8381111562000c20576000848401525b50505050565b60006020828403121562000c3957600080fd5b81516001600160401b038082111562000c5157600080fd5b818401915084601f83011262000c6657600080fd5b81518181111562000c7b5762000c7b62000bdd565b604051601f8201601f19908116603f0116810190838211818310171562000ca65762000ca662000bdd565b8160405282815287602084870101111562000cc057600080fd5b62000cd383602083016020880162000bf3565b979650505050505050565b634e487b7160e01b600052601160045260246000fd5b600060001982141562000d0b5762000d0b62000cde565b5060010190565b6000821982111562000d285762000d2862000cde565b500190565b600060018060a01b03808716835280861660208401525083604083015260806060830152825180608084015262000d6c8160a085016020870162000bf3565b601f01601f19169190910160a00195945050505050565b60006020828403121562000d9657600080fd5b81516001600160e01b03198116811462000daf57600080fd5b9392505050565b60008282101562000dcb5762000dcb62000cde565b500390565b634e487b7160e01b600052603260045260246000fd5b634e487b7160e01b600052603160045260246000fd5b600181811c9082168062000e1157607f821691505b6020821081141562000e3357634e487b7160e01b600052602260045260246000fd5b50919050565b60805161301a62000e71600039600081816103f701528181610bb0015281816111230152818161134d0152611c94015261301a6000f3fe60806040526004361061025c5760003560e01c806370a0823111610144578063b88d4fde116100b6578063d547741f1161007a578063d547741f14610745578063d547cfb714610765578063e63ab1e91461077a578063e8a3d485146107ae578063e985e9c5146107c3578063fd30d9a01461080c57600080fd5b8063b88d4fde1461069c578063c1292cc3146106bc578063c87b56dd146106d1578063ca15c873146106f1578063d53913931461071157600080fd5b80639010d07c116101085780639010d07c146105ff57806391d148541461061f57806395d89b411461063f578063a0712d6814610654578063a217fddf14610667578063a22cb4651461067c57600080fd5b806370a08231146105735780637146bd08146105935780637f205a74146105ba5780638456cb59146105d55780638c6bbb41146105ea57600080fd5b806332cb6b0c116101dd57806342842e0e116101a157806342842e0e146104a757806342966c68146104c75780634a2cfb54146104e75780634f6ccce71461051b5780635c975abb1461053b5780636352211e1461055357600080fd5b806332cb6b0c146103e557806336568abe1461042c578063372c65331461044c5780633ccfd60b1461047d5780633f4ba83a1461049257600080fd5b806323b872dd1161022457806323b872dd14610335578063248a9ca3146103555780632f2ff15d146103855780632f745c59146103a557806330176e13146103c557600080fd5b806301ffc9a71461026157806306fdde0314610296578063081812fc146102b8578063095ea7b3146102f057806318160ddd14610312575b600080fd5b34801561026d57600080fd5b5061028161027c36600461287f565b610827565b60405190151581526020015b60405180910390f35b3480156102a257600080fd5b506102ab610838565b60405161028d91906128f4565b3480156102c457600080fd5b506102d86102d3366004612907565b610847565b6040516001600160a01b03909116815260200161028d565b3480156102fc57600080fd5b5061031061030b36600461293c565b6108e1565b005b34801561031e57600080fd5b506103276109f7565b60405190815260200161028d565b34801561034157600080fd5b50610310610350366004612966565b610a02565b34801561036157600080fd5b50610327610370366004612907565b60009081526020819052604090206001015490565b34801561039157600080fd5b506103106103a03660046129a2565b610a34565b3480156103b157600080fd5b506103276103c036600461293c565b610a5a565b3480156103d157600080fd5b506103106103e0366004612a5a565b610af0565b3480156103f157600080fd5b506104197f000000000000000000000000000000000000000000000000000000000000000081565b60405161ffff909116815260200161028d565b34801561043857600080fd5b506103106104473660046129a2565b610b28565b34801561045857600080fd5b5061046463621545e881565b60405167ffffffffffffffff909116815260200161028d565b34801561048957600080fd5b50610310610ba2565b34801561049e57600080fd5b50610310610c3b565b3480156104b357600080fd5b506103106104c2366004612966565b610c71565b3480156104d357600080fd5b506103106104e2366004612907565b610c8c565b3480156104f357600080fd5b506103277f850d585eb7f024ccee5e68e55f2c26cc72e1e6ee456acf62135757a5eb9d4a1081565b34801561052757600080fd5b50610327610536366004612907565b610d03565b34801561054757600080fd5b50600c5460ff16610281565b34801561055f57600080fd5b506102d861056e366004612907565b610d96565b34801561057f57600080fd5b5061032761058e366004612aa3565b610e0d565b34801561059f57600080fd5b506105a8600581565b60405160ff909116815260200161028d565b3480156105c657600080fd5b5061032766b1a2bc2ec5000081565b3480156105e157600080fd5b50610310610e94565b3480156105f657600080fd5b506102ab610ec7565b34801561060b57600080fd5b506102d861061a366004612abe565b610f55565b34801561062b57600080fd5b5061028161063a3660046129a2565b610f74565b34801561064b57600080fd5b506102ab610f9d565b610310610662366004612907565b610fa7565b34801561067357600080fd5b50610327600081565b34801561068857600080fd5b50610310610697366004612ae0565b6111e8565b3480156106a857600080fd5b506103106106b7366004612b1c565b6111f3565b3480156106c857600080fd5b5061032761122b565b3480156106dd57600080fd5b506102ab6106ec366004612907565b611236565b3480156106fd57600080fd5b5061032761070c366004612907565b6113cf565b34801561071d57600080fd5b506103277f9f2df0fed2c77648de5860a4cc508cd0818c85b8b8a1ab4ceeef8d981c8956a681565b34801561075157600080fd5b506103106107603660046129a2565b6113e6565b34801561077157600080fd5b506102ab61140c565b34801561078657600080fd5b506103277f65d7a28e3265b37a6474929f336521b332c1681b933f6cb9f3376673440d862a81565b3480156107ba57600080fd5b506102ab61149e565b3480156107cf57600080fd5b506102816107de366004612b98565b6001600160a01b03918216600090815260076020908152604080832093909416825291909152205460ff1690565b34801561081857600080fd5b506012546104199061ffff1681565b6000610832826116ab565b92915050565b60606108426116d0565b905090565b6000818152600460205260408120546001600160a01b03166108c55760405162461bcd60e51b815260206004820152602c60248201527f4552433732313a20617070726f76656420717565727920666f72206e6f6e657860448201526b34b9ba32b73a103a37b5b2b760a11b60648201526084015b60405180910390fd5b506000908152600660205260409020546001600160a01b031690565b60006108ec82610d96565b9050806001600160a01b0316836001600160a01b0316141561095a5760405162461bcd60e51b815260206004820152602160248201527f4552433732313a20617070726f76616c20746f2063757272656e74206f776e656044820152603960f91b60648201526084016108bc565b336001600160a01b0382161480610976575061097681336107de565b6109e85760405162461bcd60e51b815260206004820152603860248201527f4552433732313a20617070726f76652063616c6c6572206973206e6f74206f7760448201527f6e6572206e6f7220617070726f76656420666f7220616c6c000000000000000060648201526084016108bc565b6109f283836116df565b505050565b6000610842600d5490565b610a0d335b8261174d565b610a295760405162461bcd60e51b81526004016108bc90612bc2565b6109f2838383611844565b600082815260208190526040902060010154610a5081336119ef565b6109f28383611a53565b6000610a6583610e0d565b8210610ac75760405162461bcd60e51b815260206004820152602b60248201527f455243373231456e756d657261626c653a206f776e657220696e646578206f7560448201526a74206f6620626f756e647360a81b60648201526084016108bc565b506001600160a01b03919091166000908152600860209081526040808320938352929052205490565b7f850d585eb7f024ccee5e68e55f2c26cc72e1e6ee456acf62135757a5eb9d4a10610b1b81336119ef565b610b2482611a75565b5050565b6001600160a01b0381163314610b985760405162461bcd60e51b815260206004820152602f60248201527f416363657373436f6e74726f6c3a2063616e206f6e6c792072656e6f756e636560448201526e103937b632b9903337b91039b2b63360891b60648201526084016108bc565b610b248282611a88565b6000610bae81336119ef565b7f0000000000000000000000000000000000000000000000000000000000000000610bda600143612c29565b610be49190612c56565b6012805461ffff191661ffff929092169182179055610c0c576012805461ffff191660011790555b6040514790339082156108fc029083906000818181858888f193505050501580156109f2573d6000803e3d6000fd5b7f65d7a28e3265b37a6474929f336521b332c1681b933f6cb9f3376673440d862a610c6681336119ef565b610c6e611aaa565b50565b6109f2838383604051806020016040528060008152506111f3565b610c9533610a07565b610cfa5760405162461bcd60e51b815260206004820152603060248201527f4552433732314275726e61626c653a2063616c6c6572206973206e6f74206f7760448201526f1b995c881b9bdc88185c1c1c9bdd995960821b60648201526084016108bc565b610c6e81611b3d565b6000610d0e600a5490565b8210610d715760405162461bcd60e51b815260206004820152602c60248201527f455243373231456e756d657261626c653a20676c6f62616c20696e646578206f60448201526b7574206f6620626f756e647360a01b60648201526084016108bc565b600a8281548110610d8457610d84612c77565b90600052602060002001549050919050565b6000818152600460205260408120546001600160a01b0316806108325760405162461bcd60e51b815260206004820152602960248201527f4552433732313a206f776e657220717565727920666f72206e6f6e657869737460448201526832b73a103a37b5b2b760b91b60648201526084016108bc565b60006001600160a01b038216610e785760405162461bcd60e51b815260206004820152602a60248201527f4552433732313a2062616c616e636520717565727920666f7220746865207a65604482015269726f206164647265737360b01b60648201526084016108bc565b506001600160a01b031660009081526005602052604090205490565b7f65d7a28e3265b37a6474929f336521b332c1681b933f6cb9f3376673440d862a610ebf81336119ef565b610c6e611be4565b60118054610ed490612c8d565b80601f0160208091040260200160405190810160405280929190818152602001828054610f0090612c8d565b8015610f4d5780601f10610f2257610100808354040283529160200191610f4d565b820191906000526020600020905b815481529060010190602001808311610f3057829003601f168201915b505050505081565b6000828152600160205260408120610f6d9083611c5f565b9392505050565b6000918252602082815260408084206001600160a01b0393909316845291905290205460ff1690565b6060610842611c6b565b60026010541415610ffa5760405162461bcd60e51b815260206004820152601f60248201527f5265656e7472616e637947756172643a207265656e7472616e742063616c6c0060448201526064016108bc565b600260105563621545e84267ffffffffffffffff1610156110545760405162461bcd60e51b815260206004820152601460248201527314d85b19481a185cc81b9bdd081cdd185c9d195960621b60448201526064016108bc565b8061105d575060015b33600561107361106c83610e0d565b8490611c7a565b11156110c15760405162461bcd60e51b815260206004820152601d60248201527f43616e6e6f74206d696e74206d6f7265207468616e20616c6c6f77656400000060448201526064016108bc565b346110d38366b1a2bc2ec50000611c86565b11156111215760405162461bcd60e51b815260206004820152601a60248201527f416d6f756e742073656e74206973206e6f7420636f727265637400000000000060448201526064016108bc565b7f000000000000000000000000000000000000000000000000000000000000000061ffff16611158836111526109f7565b90611c7a565b11156111b85760405162461bcd60e51b815260206004820152602960248201527f416d6f756e74206578636565647320746f74616c20616c6c6f7761626c65206360448201526837b63632b1ba34b7b760b91b60648201526084016108bc565b60005b828110156111de576111cc82611c92565b806111d681612cc8565b9150506111bb565b5050600160105550565b610b24338383611d35565b6111fd338361174d565b6112195760405162461bcd60e51b81526004016108bc90612bc2565b61122584848484611e04565b50505050565b6000610842600f5490565b60125460609061ffff1661128c5760405162461bcd60e51b815260206004820152601b60248201527f436f6c6c656374696f6e206e6f742072656c656173656420796574000000000060448201526064016108bc565b6000828152600460205260409020546001600160a01b03166112f05760405162461bcd60e51b815260206004820152601f60248201527f55524920717565727920666f72206e6f6e6578697374656e7420746f6b656e0060448201526064016108bc565b6004821161133d5761130061140c565b6011611315611310856001611e37565b611e43565b60405160200161132793929190612d7d565b6040516020818303038152906040529050919050565b60006113916004611152611371827f0000000000000000000000000000000000000000000000000000000000000000612dd6565b60125461ffff9182169161138b9116611152896004611e37565b90611f41565b905061139b61140c565b60116113a683611e43565b6040516020016113b893929190612d7d565b604051602081830303815290604052915050919050565b600081815260016020526040812061083290611f4d565b60008281526020819052604090206001015461140281336119ef565b6109f28383611a88565b6060600e805461141b90612c8d565b80601f016020809104026020016040519081016040528092919081815260200182805461144790612c8d565b80156114945780601f1061146957610100808354040283529160200191611494565b820191906000526020600020905b81548152906001019060200180831161147757829003601f168201915b5050505050905090565b60606114a861140c565b60116040516020016114bb929190612df9565b604051602081830303815290604052905090565b80546001019055565b6114e28282610f74565b610b24576000828152602081815260408083206001600160a01b03851684529091529020805460ff191660011790556115183390565b6001600160a01b0316816001600160a01b0316837f2f8788117e7eff1d82e926ec794901d17c78024a50270940304540a733656f0d60405160405180910390a45050565b6000610f6d836001600160a01b038416611f57565b600d5490565b5490565b3b151590565b61158c8383836115f3565b600c5460ff16156109f25760405162461bcd60e51b815260206004820152602b60248201527f4552433732315061757361626c653a20746f6b656e207472616e73666572207760448201526a1a1a5b19481c185d5cd95960aa1b60648201526084016108bc565b6001600160a01b03831661164e5761164981600a80546000838152600b60205260408120829055600182018355919091527fc65a7bb8d6351c1cf70c95a316cc6a92839c986682d98bc35f958f4883f9d2a80155565b611671565b816001600160a01b0316836001600160a01b031614611671576116718382611fa6565b6001600160a01b038216611688576109f281612043565b826001600160a01b0316826001600160a01b0316146109f2576109f282826120f2565b60006001600160e01b0319821663780e9d6360e01b1480610832575061083282612136565b60606002805461141b90612c8d565b600081815260066020526040902080546001600160a01b0319166001600160a01b038416908117909155819061171482610d96565b6001600160a01b03167f8c5be1e5ebec7d5bd14f71427d1e84f3dd0314c0f7b2291e5b200ac8c7c3b92560405160405180910390a45050565b6000818152600460205260408120546001600160a01b03166117c65760405162461bcd60e51b815260206004820152602c60248201527f4552433732313a206f70657261746f7220717565727920666f72206e6f6e657860448201526b34b9ba32b73a103a37b5b2b760a11b60648201526084016108bc565b60006117d183610d96565b9050806001600160a01b0316846001600160a01b0316148061180c5750836001600160a01b031661180184610847565b6001600160a01b0316145b8061183c57506001600160a01b0380821660009081526007602090815260408083209388168352929052205460ff165b949350505050565b826001600160a01b031661185782610d96565b6001600160a01b0316146118bf5760405162461bcd60e51b815260206004820152602960248201527f4552433732313a207472616e73666572206f6620746f6b656e2074686174206960448201526839903737ba1037bbb760b91b60648201526084016108bc565b6001600160a01b0382166119215760405162461bcd60e51b8152602060048201526024808201527f4552433732313a207472616e7366657220746f20746865207a65726f206164646044820152637265737360e01b60648201526084016108bc565b61192c838383612176565b6119376000826116df565b6001600160a01b0383166000908152600560205260408120805460019290611960908490612c29565b90915550506001600160a01b038216600090815260056020526040812080546001929061198e908490612e37565b909155505060008181526004602052604080822080546001600160a01b0319166001600160a01b0386811691821790925591518493918716917fddf252ad1be2c89b69c2b068fc378daa952ba7f163c4a11628f55a4df523b3ef91a4505050565b6119f98282610f74565b610b2457611a11816001600160a01b03166014612181565b611a1c836020612181565b604051602001611a2d929190612e4f565b60408051601f198184030181529082905262461bcd60e51b82526108bc916004016128f4565b611a5d82826114d8565b60008281526001602052604090206109f2908261155c565b8051610b2490600e9060208401906127d0565b611a92828261231d565b60008281526001602052604090206109f29082612382565b600c5460ff16611af35760405162461bcd60e51b815260206004820152601460248201527314185d5cd8589b194e881b9bdd081c185d5cd95960621b60448201526064016108bc565b600c805460ff191690557f5db9ee0a495bf2e6ff9c91a7834c1ba4fdd244a5e8aa4e537bd38aeae4b073aa335b6040516001600160a01b03909116815260200160405180910390a1565b6000611b4882610d96565b9050611b5681600084612176565b611b616000836116df565b6001600160a01b0381166000908152600560205260408120805460019290611b8a908490612c29565b909155505060008281526004602052604080822080546001600160a01b0319169055518391906001600160a01b038416907fddf252ad1be2c89b69c2b068fc378daa952ba7f163c4a11628f55a4df523b3ef908390a45050565b600c5460ff1615611c2a5760405162461bcd60e51b815260206004820152601060248201526f14185d5cd8589b194e881c185d5cd95960821b60448201526064016108bc565b600c805460ff191660011790557f62e78cea01bee320cd4e420270b5ea74000d11b0c9f74754ebdbfc544b05a258611b203390565b6000610f6d8383612397565b60606003805461141b90612c8d565b6000610f6d8284612e37565b6000610f6d8284612ec4565b7f000000000000000000000000000000000000000000000000000000000000000061ffff16611cbf6109f7565b10611d0c5760405162461bcd60e51b815260206004820152601b60248201527f4d696e742071756f746120686173206265656e2072656163686564000000000060448201526064016108bc565b611d1a600f80546001019055565b611d2b81611d2661122b565b6123c1565b610c6e60016123db565b816001600160a01b0316836001600160a01b03161415611d975760405162461bcd60e51b815260206004820152601960248201527f4552433732313a20617070726f766520746f2063616c6c65720000000000000060448201526064016108bc565b6001600160a01b03838116600081815260076020908152604080832094871680845294825291829020805460ff191686151590811790915591519182527f17307eab39ab6107e8899845ad3d59bd9653f200f220920489ca2b5937696c31910160405180910390a3505050565b611e0f848484611844565b611e1b848484846123f5565b6112255760405162461bcd60e51b81526004016108bc90612ee3565b6000610f6d8284612c29565b606081611e675750506040805180820190915260018152600360fc1b602082015290565b8160005b8115611e915780611e7b81612cc8565b9150611e8a9050600a83612f35565b9150611e6b565b60008167ffffffffffffffff811115611eac57611eac6129ce565b6040519080825280601f01601f191660200182016040528015611ed6576020820181803683370190505b5090505b841561183c57611eeb600183612c29565b9150611ef8600a86612f49565b611f03906030612e37565b60f81b818381518110611f1857611f18612c77565b60200101906001600160f81b031916908160001a905350611f3a600a86612f35565b9450611eda565b6000610f6d8284612f49565b6000610832825490565b6000818152600183016020526040812054611f9e57508154600181810184556000848152602080822090930184905584548482528286019093526040902091909155610832565b506000610832565b60006001611fb384610e0d565b611fbd9190612c29565b600083815260096020526040902054909150808214612010576001600160a01b03841660009081526008602090815260408083208584528252808320548484528184208190558352600990915290208190555b5060009182526009602090815260408084208490556001600160a01b039094168352600881528383209183525290812055565b600a5460009061205590600190612c29565b6000838152600b6020526040812054600a805493945090928490811061207d5761207d612c77565b9060005260206000200154905080600a838154811061209e5761209e612c77565b6000918252602080832090910192909255828152600b9091526040808220849055858252812055600a8054806120d6576120d6612f5d565b6001900381819060005260206000200160009055905550505050565b60006120fd83610e0d565b6001600160a01b039093166000908152600860209081526040808320868452825280832085905593825260099052919091209190915550565b60006001600160e01b031982166380ac58cd60e01b148061216757506001600160e01b03198216635b5e139f60e01b145b80610832575061083282612502565b6109f2838383611581565b60606000612190836002612ec4565b61219b906002612e37565b67ffffffffffffffff8111156121b3576121b36129ce565b6040519080825280601f01601f1916602001820160405280156121dd576020820181803683370190505b509050600360fc1b816000815181106121f8576121f8612c77565b60200101906001600160f81b031916908160001a905350600f60fb1b8160018151811061222757612227612c77565b60200101906001600160f81b031916908160001a905350600061224b846002612ec4565b612256906001612e37565b90505b60018111156122ce576f181899199a1a9b1b9c1cb0b131b232b360811b85600f166010811061228a5761228a612c77565b1a60f81b8282815181106122a0576122a0612c77565b60200101906001600160f81b031916908160001a90535060049490941c936122c781612f73565b9050612259565b508315610f6d5760405162461bcd60e51b815260206004820181905260248201527f537472696e67733a20686578206c656e67746820696e73756666696369656e7460448201526064016108bc565b6123278282610f74565b15610b24576000828152602081815260408083206001600160a01b0385168085529252808320805460ff1916905551339285917ff6391f5c32d9c69d2a47ea670b442974b53935d1edc7fd64eb21e047a839171b9190a45050565b6000610f6d836001600160a01b038416612527565b60008260000182815481106123ae576123ae612c77565b9060005260206000200154905092915050565b610b2482826040518060200160405280600081525061261a565b80600d60008282546123ed9190612e37565b909155505050565b60006001600160a01b0384163b156124f757604051630a85bd0160e11b81526001600160a01b0385169063150b7a0290612439903390899088908890600401612f8a565b602060405180830381600087803b15801561245357600080fd5b505af1925050508015612483575060408051601f3d908101601f1916820190925261248091810190612fc7565b60015b6124dd573d8080156124b1576040519150601f19603f3d011682016040523d82523d6000602084013e6124b6565b606091505b5080516124d55760405162461bcd60e51b81526004016108bc90612ee3565b805181602001fd5b6001600160e01b031916630a85bd0160e11b14905061183c565b506001949350505050565b60006001600160e01b03198216635a05180f60e01b148061083257506108328261264d565b6000818152600183016020526040812054801561261057600061254b600183612c29565b855490915060009061255f90600190612c29565b90508181146125c457600086600001828154811061257f5761257f612c77565b90600052602060002001549050808760000184815481106125a2576125a2612c77565b6000918252602080832090910192909255918252600188019052604090208390555b85548690806125d5576125d5612f5d565b600190038181906000526020600020016000905590558560010160008681526020019081526020016000206000905560019350505050610832565b6000915050610832565b6126248383612682565b61263160008484846123f5565b6109f25760405162461bcd60e51b81526004016108bc90612ee3565b60006001600160e01b03198216637965db0b60e01b148061083257506301ffc9a760e01b6001600160e01b0319831614610832565b6001600160a01b0382166126d85760405162461bcd60e51b815260206004820181905260248201527f4552433732313a206d696e7420746f20746865207a65726f206164647265737360448201526064016108bc565b6000818152600460205260409020546001600160a01b03161561273d5760405162461bcd60e51b815260206004820152601c60248201527f4552433732313a20746f6b656e20616c7265616479206d696e7465640000000060448201526064016108bc565b61274960008383612176565b6001600160a01b0382166000908152600560205260408120805460019290612772908490612e37565b909155505060008181526004602052604080822080546001600160a01b0319166001600160a01b03861690811790915590518392907fddf252ad1be2c89b69c2b068fc378daa952ba7f163c4a11628f55a4df523b3ef908290a45050565b8280546127dc90612c8d565b90600052602060002090601f0160209004810192826127fe5760008555612844565b82601f1061281757805160ff1916838001178555612844565b82800160010185558215612844579182015b82811115612844578251825591602001919060010190612829565b50612850929150612854565b5090565b5b808211156128505760008155600101612855565b6001600160e01b031981168114610c6e57600080fd5b60006020828403121561289157600080fd5b8135610f6d81612869565b60005b838110156128b757818101518382015260200161289f565b838111156112255750506000910152565b600081518084526128e081602086016020860161289c565b601f01601f19169290920160200192915050565b602081526000610f6d60208301846128c8565b60006020828403121561291957600080fd5b5035919050565b80356001600160a01b038116811461293757600080fd5b919050565b6000806040838503121561294f57600080fd5b61295883612920565b946020939093013593505050565b60008060006060848603121561297b57600080fd5b61298484612920565b925061299260208501612920565b9150604084013590509250925092565b600080604083850312156129b557600080fd5b823591506129c560208401612920565b90509250929050565b634e487b7160e01b600052604160045260246000fd5b600067ffffffffffffffff808411156129ff576129ff6129ce565b604051601f8501601f19908116603f01168101908282118183101715612a2757612a276129ce565b81604052809350858152868686011115612a4057600080fd5b858560208301376000602087830101525050509392505050565b600060208284031215612a6c57600080fd5b813567ffffffffffffffff811115612a8357600080fd5b8201601f81018413612a9457600080fd5b61183c848235602084016129e4565b600060208284031215612ab557600080fd5b610f6d82612920565b60008060408385031215612ad157600080fd5b50508035926020909101359150565b60008060408385031215612af357600080fd5b612afc83612920565b915060208301358015158114612b1157600080fd5b809150509250929050565b60008060008060808587031215612b3257600080fd5b612b3b85612920565b9350612b4960208601612920565b925060408501359150606085013567ffffffffffffffff811115612b6c57600080fd5b8501601f81018713612b7d57600080fd5b612b8c878235602084016129e4565b91505092959194509250565b60008060408385031215612bab57600080fd5b612bb483612920565b91506129c560208401612920565b60208082526031908201527f4552433732313a207472616e736665722063616c6c6572206973206e6f74206f6040820152701ddb995c881b9bdc88185c1c1c9bdd9959607a1b606082015260800190565b634e487b7160e01b600052601160045260246000fd5b600082821015612c3b57612c3b612c13565b500390565b634e487b7160e01b600052601260045260246000fd5b600061ffff80841680612c6b57612c6b612c40565b92169190910692915050565b634e487b7160e01b600052603260045260246000fd5b600181811c90821680612ca157607f821691505b60208210811415612cc257634e487b7160e01b600052602260045260246000fd5b50919050565b6000600019821415612cdc57612cdc612c13565b5060010190565b8054600090600181811c9080831680612cfd57607f831692505b6020808410821415612d1f57634e487b7160e01b600052602260045260246000fd5b818015612d335760018114612d4457612d71565b60ff19861689528489019650612d71565b60008881526020902060005b86811015612d695781548b820152908501908301612d50565b505084890196505b50505050505092915050565b60008451612d8f81846020890161289c565b612d9b81840186612ce3565b9050602f60f81b81528351612db781600184016020880161289c565b64173539b7b760d91b6001929091019182015260060195945050505050565b600061ffff83811690831681811015612df157612df1612c13565b039392505050565b60008351612e0b81846020880161289c565b612e1781840185612ce3565b6d17b1b7b73a3930b1ba173539b7b760911b8152600e0195945050505050565b60008219821115612e4a57612e4a612c13565b500190565b7f416363657373436f6e74726f6c3a206163636f756e7420000000000000000000815260008351612e8781601785016020880161289c565b7001034b99036b4b9b9b4b733903937b6329607d1b6017918401918201528351612eb881602884016020880161289c565b01602801949350505050565b6000816000190483118215151615612ede57612ede612c13565b500290565b60208082526032908201527f4552433732313a207472616e7366657220746f206e6f6e20455243373231526560408201527131b2b4bb32b91034b6b83632b6b2b73a32b960711b606082015260800190565b600082612f4457612f44612c40565b500490565b600082612f5857612f58612c40565b500690565b634e487b7160e01b600052603160045260246000fd5b600081612f8257612f82612c13565b506000190190565b6001600160a01b0385811682528416602082015260408101839052608060608201819052600090612fbd908301846128c8565b9695505050505050565b600060208284031215612fd957600080fd5b8151610f6d8161286956fea2646970667358221220b7c09395327881330d437da23897f22acb623ed7b907a7ed020de281823658bf64736f6c634300080900334552433732313a207472616e7366657220746f206e6f6e204552433732315265",
  "linkReferences": {},
  "deployedLinkReferences": {}
}