{
  "_format": "hh-sol-artifact-1",
  "contractName": "GratitideCollection",
  "sourceName": "contracts/GratitideCollection.sol",
  "abi": [
    {
      "inputs": [
        {
          "internalType": "string",
          "name": "cid",
          "type": "string"
        }
      ],
      "stateMutability": "nonpayable",
      "type": "constructor"
    },
    {
      "anonymous": false,
      "inputs": [
        {
          "indexed": true,
          "internalType": "address",
          "name": "owner",
          "type": "address"
        },
        {
          "indexed": true,
          "internalType": "address",
          "name": "approved",
          "type": "address"
        },
        {
          "indexed": true,
          "internalType": "uint256",
          "name": "tokenId",
          "type": "uint256"
        }
      ],
      "name": "Approval",
      "type": "event"
    },
    {
      "anonymous": false,
      "inputs": [
        {
          "indexed": true,
          "internalType": "address",
          "name": "owner",
          "type": "address"
        },
        {
          "indexed": true,
          "internalType": "address",
          "name": "operator",
          "type": "address"
        },
        {
          "indexed": false,
          "internalType": "bool",
          "name": "approved",
          "type": "bool"
        }
      ],
      "name": "ApprovalForAll",
      "type": "event"
    },
    {
      "anonymous": false,
      "inputs": [
        {
          "indexed": false,
          "internalType": "address",
          "name": "account",
          "type": "address"
        }
      ],
      "name": "Paused",
      "type": "event"
    },
    {
      "anonymous": false,
      "inputs": [
        {
          "indexed": true,
          "internalType": "bytes32",
          "name": "role",
          "type": "bytes32"
        },
        {
          "indexed": true,
          "internalType": "bytes32",
          "name": "previousAdminRole",
          "type": "bytes32"
        },
        {
          "indexed": true,
          "internalType": "bytes32",
          "name": "newAdminRole",
          "type": "bytes32"
        }
      ],
      "name": "RoleAdminChanged",
      "type": "event"
    },
    {
      "anonymous": false,
      "inputs": [
        {
          "indexed": true,
          "internalType": "bytes32",
          "name": "role",
          "type": "bytes32"
        },
        {
          "indexed": true,
          "internalType": "address",
          "name": "account",
          "type": "address"
        },
        {
          "indexed": true,
          "internalType": "address",
          "name": "sender",
          "type": "address"
        }
      ],
      "name": "RoleGranted",
      "type": "event"
    },
    {
      "anonymous": false,
      "inputs": [
        {
          "indexed": true,
          "internalType": "bytes32",
          "name": "role",
          "type": "bytes32"
        },
        {
          "indexed": true,
          "internalType": "address",
          "name": "account",
          "type": "address"
        },
        {
          "indexed": true,
          "internalType": "address",
          "name": "sender",
          "type": "address"
        }
      ],
      "name": "RoleRevoked",
      "type": "event"
    },
    {
      "anonymous": false,
      "inputs": [
        {
          "indexed": true,
          "internalType": "address",
          "name": "from",
          "type": "address"
        },
        {
          "indexed": true,
          "internalType": "address",
          "name": "to",
          "type": "address"
        },
        {
          "indexed": true,
          "internalType": "uint256",
          "name": "tokenId",
          "type": "uint256"
        }
      ],
      "name": "Transfer",
      "type": "event"
    },
    {
      "anonymous": false,
      "inputs": [
        {
          "indexed": false,
          "internalType": "address",
          "name": "account",
          "type": "address"
        }
      ],
      "name": "Unpaused",
      "type": "event"
    },
    {
      "inputs": [],
      "name": "CID_FOLDER",
      "outputs": [
        {
          "internalType": "string",
          "name": "",
          "type": "string"
        }
      ],
      "stateMutability": "view",
      "type": "function"
    },
    {
      "inputs": [],
      "name": "CURATOR_ROLE",
      "outputs": [
        {
          "internalType": "bytes32",
          "name": "",
          "type": "bytes32"
        }
      ],
      "stateMutability": "view",
      "type": "function"
    },
    {
      "inputs": [],
      "name": "DEFAULT_ADMIN_ROLE",
      "outputs": [
        {
          "internalType": "bytes32",
          "name": "",
          "type": "bytes32"
        }
      ],
      "stateMutability": "view",
      "type": "function"
    },
    {
      "inputs": [],
      "name": "MAX_PURCHASE",
      "outputs": [
        {
          "internalType": "uint8",
          "name": "",
          "type": "uint8"
        }
      ],
      "stateMutability": "view",
      "type": "function"
    },
    {
      "inputs": [],
      "name": "MAX_SUPPLY",
      "outputs": [
        {
          "internalType": "uint16",
          "name": "",
          "type": "uint16"
        }
      ],
      "stateMutability": "view",
      "type": "function"
    },
    {
      "inputs": [],
      "name": "MINTER_ROLE",
      "outputs": [
        {
          "internalType": "bytes32",
          "name": "",
          "type": "bytes32"
        }
      ],
      "stateMutability": "view",
      "type": "function"
    },
    {
      "inputs": [],
      "name": "PAUSER_ROLE",
      "outputs": [
        {
          "internalType": "bytes32",
          "name": "",
          "type": "bytes32"
        }
      ],
      "stateMutability": "view",
      "type": "function"
    },
    {
      "inputs": [],
      "name": "PRESALE_DATE",
      "outputs": [
        {
          "internalType": "uint64",
          "name": "",
          "type": "uint64"
        }
      ],
      "stateMutability": "view",
      "type": "function"
    },
    {
      "inputs": [],
      "name": "SALE_DATE",
      "outputs": [
        {
          "internalType": "uint64",
          "name": "",
          "type": "uint64"
        }
      ],
      "stateMutability": "view",
      "type": "function"
    },
    {
      "inputs": [],
      "name": "SALE_PRICE",
      "outputs": [
        {
          "internalType": "uint256",
          "name": "",
          "type": "uint256"
        }
      ],
      "stateMutability": "view",
      "type": "function"
    },
    {
      "inputs": [
        {
          "internalType": "address",
          "name": "to",
          "type": "address"
        },
        {
          "internalType": "uint256",
          "name": "tokenId",
          "type": "uint256"
        }
      ],
      "name": "approve",
      "outputs": [],
      "stateMutability": "nonpayable",
      "type": "function"
    },
    {
      "inputs": [
        {
          "internalType": "uint256",
          "name": "quantity",
          "type": "uint256"
        },
        {
          "internalType": "bytes",
          "name": "proof",
          "type": "bytes"
        }
      ],
      "name": "authorize",
      "outputs": [],
      "stateMutability": "payable",
      "type": "function"
    },
    {
      "inputs": [
        {
          "internalType": "address",
          "name": "owner",
          "type": "address"
        }
      ],
      "name": "balanceOf",
      "outputs": [
        {
          "internalType": "uint256",
          "name": "",
          "type": "uint256"
        }
      ],
      "stateMutability": "view",
      "type": "function"
    },
    {
      "inputs": [],
      "name": "baseTokenURI",
      "outputs": [
        {
          "internalType": "string",
          "name": "",
          "type": "string"
        }
      ],
      "stateMutability": "view",
      "type": "function"
    },
    {
      "inputs": [
        {
          "internalType": "uint256",
          "name": "tokenId",
          "type": "uint256"
        }
      ],
      "name": "burn",
      "outputs": [],
      "stateMutability": "nonpayable",
      "type": "function"
    },
    {
      "inputs": [],
      "name": "contractURI",
      "outputs": [
        {
          "internalType": "string",
          "name": "",
          "type": "string"
        }
      ],
      "stateMutability": "view",
      "type": "function"
    },
    {
      "inputs": [
        {
          "internalType": "uint256",
          "name": "tokenId",
          "type": "uint256"
        }
      ],
      "name": "getApproved",
      "outputs": [
        {
          "internalType": "address",
          "name": "",
          "type": "address"
        }
      ],
      "stateMutability": "view",
      "type": "function"
    },
    {
      "inputs": [
        {
          "internalType": "bytes32",
          "name": "role",
          "type": "bytes32"
        }
      ],
      "name": "getRoleAdmin",
      "outputs": [
        {
          "internalType": "bytes32",
          "name": "",
          "type": "bytes32"
        }
      ],
      "stateMutability": "view",
      "type": "function"
    },
    {
      "inputs": [
        {
          "internalType": "bytes32",
          "name": "role",
          "type": "bytes32"
        },
        {
          "internalType": "uint256",
          "name": "index",
          "type": "uint256"
        }
      ],
      "name": "getRoleMember",
      "outputs": [
        {
          "internalType": "address",
          "name": "",
          "type": "address"
        }
      ],
      "stateMutability": "view",
      "type": "function"
    },
    {
      "inputs": [
        {
          "internalType": "bytes32",
          "name": "role",
          "type": "bytes32"
        }
      ],
      "name": "getRoleMemberCount",
      "outputs": [
        {
          "internalType": "uint256",
          "name": "",
          "type": "uint256"
        }
      ],
      "stateMutability": "view",
      "type": "function"
    },
    {
      "inputs": [
        {
          "internalType": "bytes32",
          "name": "role",
          "type": "bytes32"
        },
        {
          "internalType": "address",
          "name": "account",
          "type": "address"
        }
      ],
      "name": "grantRole",
      "outputs": [],
      "stateMutability": "nonpayable",
      "type": "function"
    },
    {
      "inputs": [
        {
          "internalType": "bytes32",
          "name": "role",
          "type": "bytes32"
        },
        {
          "internalType": "address",
          "name": "account",
          "type": "address"
        }
      ],
      "name": "hasRole",
      "outputs": [
        {
          "internalType": "bool",
          "name": "",
          "type": "bool"
        }
      ],
      "stateMutability": "view",
      "type": "function"
    },
    {
      "inputs": [],
      "name": "indexOffset",
      "outputs": [
        {
          "internalType": "uint16",
          "name": "",
          "type": "uint16"
        }
      ],
      "stateMutability": "view",
      "type": "function"
    },
    {
      "inputs": [
        {
          "internalType": "address",
          "name": "owner",
          "type": "address"
        },
        {
          "internalType": "address",
          "name": "operator",
          "type": "address"
        }
      ],
      "name": "isApprovedForAll",
      "outputs": [
        {
          "internalType": "bool",
          "name": "",
          "type": "bool"
        }
      ],
      "stateMutability": "view",
      "type": "function"
    },
    {
      "inputs": [],
      "name": "lastId",
      "outputs": [
        {
          "internalType": "uint256",
          "name": "",
          "type": "uint256"
        }
      ],
      "stateMutability": "view",
      "type": "function"
    },
    {
      "inputs": [
        {
          "internalType": "uint256",
          "name": "quantity",
          "type": "uint256"
        }
      ],
      "name": "mint",
      "outputs": [],
      "stateMutability": "payable",
      "type": "function"
    },
    {
      "inputs": [],
      "name": "name",
      "outputs": [
        {
          "internalType": "string",
          "name": "",
          "type": "string"
        }
      ],
      "stateMutability": "view",
      "type": "function"
    },
    {
      "inputs": [
        {
          "internalType": "uint256",
          "name": "tokenId",
          "type": "uint256"
        }
      ],
      "name": "ownerOf",
      "outputs": [
        {
          "internalType": "address",
          "name": "",
          "type": "address"
        }
      ],
      "stateMutability": "view",
      "type": "function"
    },
    {
      "inputs": [],
      "name": "pause",
      "outputs": [],
      "stateMutability": "nonpayable",
      "type": "function"
    },
    {
      "inputs": [],
      "name": "paused",
      "outputs": [
        {
          "internalType": "bool",
          "name": "",
          "type": "bool"
        }
      ],
      "stateMutability": "view",
      "type": "function"
    },
    {
      "inputs": [
        {
          "internalType": "bytes32",
          "name": "role",
          "type": "bytes32"
        },
        {
          "internalType": "address",
          "name": "account",
          "type": "address"
        }
      ],
      "name": "renounceRole",
      "outputs": [],
      "stateMutability": "nonpayable",
      "type": "function"
    },
    {
      "inputs": [
        {
          "internalType": "bytes32",
          "name": "role",
          "type": "bytes32"
        },
        {
          "internalType": "address",
          "name": "account",
          "type": "address"
        }
      ],
      "name": "revokeRole",
      "outputs": [],
      "stateMutability": "nonpayable",
      "type": "function"
    },
    {
      "inputs": [
        {
          "internalType": "address",
          "name": "from",
          "type": "address"
        },
        {
          "internalType": "address",
          "name": "to",
          "type": "address"
        },
        {
          "internalType": "uint256",
          "name": "tokenId",
          "type": "uint256"
        }
      ],
      "name": "safeTransferFrom",
      "outputs": [],
      "stateMutability": "nonpayable",
      "type": "function"
    },
    {
      "inputs": [
        {
          "internalType": "address",
          "name": "from",
          "type": "address"
        },
        {
          "internalType": "address",
          "name": "to",
          "type": "address"
        },
        {
          "internalType": "uint256",
          "name": "tokenId",
          "type": "uint256"
        },
        {
          "internalType": "bytes",
          "name": "_data",
          "type": "bytes"
        }
      ],
      "name": "safeTransferFrom",
      "outputs": [],
      "stateMutability": "nonpayable",
      "type": "function"
    },
    {
      "inputs": [
        {
          "internalType": "address",
          "name": "operator",
          "type": "address"
        },
        {
          "internalType": "bool",
          "name": "approved",
          "type": "bool"
        }
      ],
      "name": "setApprovalForAll",
      "outputs": [],
      "stateMutability": "nonpayable",
      "type": "function"
    },
    {
      "inputs": [
        {
          "internalType": "string",
          "name": "uri",
          "type": "string"
        }
      ],
      "name": "setBaseTokenURI",
      "outputs": [],
      "stateMutability": "nonpayable",
      "type": "function"
    },
    {
      "inputs": [
        {
          "internalType": "bytes4",
          "name": "interfaceId",
          "type": "bytes4"
        }
      ],
      "name": "supportsInterface",
      "outputs": [
        {
          "internalType": "bool",
          "name": "",
          "type": "bool"
        }
      ],
      "stateMutability": "view",
      "type": "function"
    },
    {
      "inputs": [],
      "name": "symbol",
      "outputs": [
        {
          "internalType": "string",
          "name": "",
          "type": "string"
        }
      ],
      "stateMutability": "view",
      "type": "function"
    },
    {
      "inputs": [
        {
          "internalType": "uint256",
          "name": "index",
          "type": "uint256"
        }
      ],
      "name": "tokenByIndex",
      "outputs": [
        {
          "internalType": "uint256",
          "name": "",
          "type": "uint256"
        }
      ],
      "stateMutability": "view",
      "type": "function"
    },
    {
      "inputs": [
        {
          "internalType": "address",
          "name": "owner",
          "type": "address"
        },
        {
          "internalType": "uint256",
          "name": "index",
          "type": "uint256"
        }
      ],
      "name": "tokenOfOwnerByIndex",
      "outputs": [
        {
          "internalType": "uint256",
          "name": "",
          "type": "uint256"
        }
      ],
      "stateMutability": "view",
      "type": "function"
    },
    {
      "inputs": [
        {
          "internalType": "uint256",
          "name": "tokenId",
          "type": "uint256"
        }
      ],
      "name": "tokenURI",
      "outputs": [
        {
          "internalType": "string",
          "name": "",
          "type": "string"
        }
      ],
      "stateMutability": "view",
      "type": "function"
    },
    {
      "inputs": [],
      "name": "totalSupply",
      "outputs": [
        {
          "internalType": "uint256",
          "name": "",
          "type": "uint256"
        }
      ],
      "stateMutability": "view",
      "type": "function"
    },
    {
      "inputs": [
        {
          "internalType": "address",
          "name": "from",
          "type": "address"
        },
        {
          "internalType": "address",
          "name": "to",
          "type": "address"
        },
        {
          "internalType": "uint256",
          "name": "tokenId",
          "type": "uint256"
        }
      ],
      "name": "transferFrom",
      "outputs": [],
      "stateMutability": "nonpayable",
      "type": "function"
    },
    {
      "inputs": [],
      "name": "unpause",
      "outputs": [],
      "stateMutability": "nonpayable",
      "type": "function"
    },
    {
      "inputs": [],
      "name": "withdraw",
      "outputs": [],
      "stateMutability": "nonpayable",
      "type": "function"
    }
  ],
  "bytecode": "0x60a06040526000600d553480156200001657600080fd5b50604051620044c9380380620044c9833981016040819052620000399162000c26565b6040518060400160405280601481526020017f47726174697469646520436f6c6c656374696f6e0000000000000000000000008152506040518060400160405280600981526020016847524154495455444560b81b8152506108ae82828160029080519060200190620000ae92919062000b37565b508051620000c490600390602084019062000b37565b5050600c805460ff191690555061ffff8116608052620000e6600033620001bf565b620001127f65d7a28e3265b37a6474929f336521b332c1681b933f6cb9f3376673440d862a33620001bf565b6200013e7f9f2df0fed2c77648de5860a4cc508cd0818c85b8b8a1ab4ceeef8d981c8956a633620001bf565b6200016a7f850d585eb7f024ccee5e68e55f2c26cc72e1e6ee456acf62135757a5eb9d4a1033620001bf565b505060016010555080516200018790601190602084019062000b37565b503360005b6010811015620001b657620001a182620001cf565b80620001ad8162000cf4565b9150506200018c565b50505062000e39565b620001cb82826200026e565b5050565b60805161ffff16620001e0620002b1565b10620002335760405162461bcd60e51b815260206004820152601b60248201527f4d696e742071756f746120686173206265656e2072656163686564000000000060448201526064015b60405180910390fd5b6200024a600f620002cd60201b6200154b1760201c565b6200025f8162000259620002d6565b620002ef565b6200026b600162000311565b50565b6200028582826200032d60201b620015541760201c565b6000828152600160209081526040909120620002ac918390620015d8620003cd821b17901c565b505050565b6000620002c8620003ed60201b620015ed1760201c565b905090565b80546001019055565b6000620002c8600f620003f360201b620015f31760201c565b620001cb828260405180602001604052806000815250620003f760201b60201c565b80600d600082825462000325919062000d12565b909155505050565b6000828152602081815260408083206001600160a01b038516845290915290205460ff16620001cb576000828152602081815260408083206001600160a01b03851684529091529020805460ff19166001179055620003893390565b6001600160a01b0316816001600160a01b0316837f2f8788117e7eff1d82e926ec794901d17c78024a50270940304540a733656f0d60405160405180910390a45050565b6000620003e4836001600160a01b0384166200046a565b90505b92915050565b600d5490565b5490565b620004038383620004bc565b62000412600084848462000612565b620002ac5760405162461bcd60e51b81526020600482015260326024820152600080516020620044a983398151915260448201527131b2b4bb32b91034b6b83632b6b2b73a32b960711b60648201526084016200022a565b6000818152600183016020526040812054620004b357508154600181810184556000848152602080822090930184905584548482528286019093526040902091909155620003e7565b506000620003e7565b6001600160a01b038216620005145760405162461bcd60e51b815260206004820181905260248201527f4552433732313a206d696e7420746f20746865207a65726f206164647265737360448201526064016200022a565b6000818152600460205260409020546001600160a01b0316156200057b5760405162461bcd60e51b815260206004820152601c60248201527f4552433732313a20746f6b656e20616c7265616479206d696e7465640000000060448201526064016200022a565b62000589600083836200077b565b6001600160a01b0382166000908152600560205260408120805460019290620005b490849062000d12565b909155505060008181526004602052604080822080546001600160a01b0319166001600160a01b03861690811790915590518392907fddf252ad1be2c89b69c2b068fc378daa952ba7f163c4a11628f55a4df523b3ef908290a45050565b600062000633846001600160a01b03166200079360201b620015f71760201c565b156200076f57604051630a85bd0160e11b81526001600160a01b0385169063150b7a02906200066d90339089908890889060040162000d2d565b602060405180830381600087803b1580156200068857600080fd5b505af1925050508015620006bb575060408051601f3d908101601f19168201909252620006b89181019062000d83565b60015b62000754573d808015620006ec576040519150601f19603f3d011682016040523d82523d6000602084013e620006f1565b606091505b5080516200074c5760405162461bcd60e51b81526020600482015260326024820152600080516020620044a983398151915260448201527131b2b4bb32b91034b6b83632b6b2b73a32b960711b60648201526084016200022a565b805181602001fd5b6001600160e01b031916630a85bd0160e11b14905062000773565b5060015b949350505050565b620002ac8383836200079960201b620015fd1760201c565b3b151590565b620007b18383836200081a60201b6200166f1760201c565b600c5460ff1615620002ac5760405162461bcd60e51b815260206004820152602b60248201527f4552433732315061757361626c653a20746f6b656e207472616e73666572207760448201526a1a1a5b19481c185d5cd95960aa1b60648201526084016200022a565b62000832838383620002ac60201b62000a181760201c565b6001600160a01b03831662000890576200088a81600a80546000838152600b60205260408120829055600182018355919091527fc65a7bb8d6351c1cf70c95a316cc6a92839c986682d98bc35f958f4883f9d2a80155565b620008b6565b816001600160a01b0316836001600160a01b031614620008b657620008b68382620008f6565b6001600160a01b038216620008d057620002ac81620009a3565b826001600160a01b0316826001600160a01b031614620002ac57620002ac828262000a5d565b60006001620009108462000aae60201b62000e331760201c565b6200091c919062000db6565b60008381526009602052604090205490915080821462000970576001600160a01b03841660009081526008602090815260408083208584528252808320548484528184208190558352600990915290208190555b5060009182526009602090815260408084208490556001600160a01b039094168352600881528383209183525290812055565b600a54600090620009b79060019062000db6565b6000838152600b6020526040812054600a8054939450909284908110620009e257620009e262000dd0565b9060005260206000200154905080600a838154811062000a065762000a0662000dd0565b6000918252602080832090910192909255828152600b9091526040808220849055858252812055600a80548062000a415762000a4162000de6565b6001900381819060005260206000200160009055905550505050565b600062000a758362000aae60201b62000e331760201c565b6001600160a01b039093166000908152600860209081526040808320868452825280832085905593825260099052919091209190915550565b60006001600160a01b03821662000b1b5760405162461bcd60e51b815260206004820152602a60248201527f4552433732313a2062616c616e636520717565727920666f7220746865207a65604482015269726f206164647265737360b01b60648201526084016200022a565b506001600160a01b031660009081526005602052604090205490565b82805462000b459062000dfc565b90600052602060002090601f01602090048101928262000b69576000855562000bb4565b82601f1062000b8457805160ff191683800117855562000bb4565b8280016001018555821562000bb4579182015b8281111562000bb457825182559160200191906001019062000b97565b5062000bc292915062000bc6565b5090565b5b8082111562000bc2576000815560010162000bc7565b634e487b7160e01b600052604160045260246000fd5b60005b8381101562000c1057818101518382015260200162000bf6565b8381111562000c20576000848401525b50505050565b60006020828403121562000c3957600080fd5b81516001600160401b038082111562000c5157600080fd5b818401915084601f83011262000c6657600080fd5b81518181111562000c7b5762000c7b62000bdd565b604051601f8201601f19908116603f0116810190838211818310171562000ca65762000ca662000bdd565b8160405282815287602084870101111562000cc057600080fd5b62000cd383602083016020880162000bf3565b979650505050505050565b634e487b7160e01b600052601160045260246000fd5b600060001982141562000d0b5762000d0b62000cde565b5060010190565b6000821982111562000d285762000d2862000cde565b500190565b600060018060a01b03808716835280861660208401525083604083015260806060830152825180608084015262000d6c8160a085016020870162000bf3565b601f01601f19169190910160a00195945050505050565b60006020828403121562000d9657600080fd5b81516001600160e01b03198116811462000daf57600080fd5b9392505050565b60008282101562000dcb5762000dcb62000cde565b500390565b634e487b7160e01b600052603260045260246000fd5b634e487b7160e01b600052603160045260246000fd5b600181811c9082168062000e1157607f821691505b6020821081141562000e3357634e487b7160e01b600052602260045260246000fd5b50919050565b60805161363862000e716000396000818161040d01528181610bd6015281816113c301528181611e0f015261258e01526136386000f3fe6080604052600436106102725760003560e01c806370a082311161014f578063b88d4fde116100c1578063d547741f1161007a578063d547741f1461076b578063d547cfb71461078b578063e63ab1e9146107a0578063e8a3d485146107d4578063e985e9c5146107e9578063fd30d9a01461083257600080fd5b8063b88d4fde146106af578063c009673f146106cf578063c1292cc3146106e2578063c87b56dd146106f7578063ca15c87314610717578063d53913931461073757600080fd5b80639010d07c116101135780639010d07c1461061257806391d148541461063257806395d89b4114610652578063a0712d6814610667578063a217fddf1461067a578063a22cb4651461068f57600080fd5b806370a08231146105865780637146bd08146105a65780637f205a74146105cd5780638456cb59146105e85780638c6bbb41146105fd57600080fd5b806336568abe116101e85780634a2cfb54116101ac5780634a2cfb54146104cc5780634c61d6fd146105005780634f6ccce71461052e5780635c975abb1461054e578063615ba9b8146105005780636352211e1461056657600080fd5b806336568abe146104425780633ccfd60b146104625780633f4ba83a1461047757806342842e0e1461048c57806342966c68146104ac57600080fd5b806323b872dd1161023a57806323b872dd1461034b578063248a9ca31461036b5780632f2ff15d1461039b5780632f745c59146103bb57806330176e13146103db57806332cb6b0c146103fb57600080fd5b806301ffc9a71461027757806306fdde03146102ac578063081812fc146102ce578063095ea7b31461030657806318160ddd14610328575b600080fd5b34801561028357600080fd5b50610297610292366004612e34565b61084d565b60405190151581526020015b60405180910390f35b3480156102b857600080fd5b506102c161085e565b6040516102a39190612ea9565b3480156102da57600080fd5b506102ee6102e9366004612ebc565b61086d565b6040516001600160a01b0390911681526020016102a3565b34801561031257600080fd5b50610326610321366004612ef1565b610907565b005b34801561033457600080fd5b5061033d610a1d565b6040519081526020016102a3565b34801561035757600080fd5b50610326610366366004612f1b565b610a28565b34801561037757600080fd5b5061033d610386366004612ebc565b60009081526020819052604090206001015490565b3480156103a757600080fd5b506103266103b6366004612f57565b610a5a565b3480156103c757600080fd5b5061033d6103d6366004612ef1565b610a80565b3480156103e757600080fd5b506103266103f636600461300f565b610b16565b34801561040757600080fd5b5061042f7f000000000000000000000000000000000000000000000000000000000000000081565b60405161ffff90911681526020016102a3565b34801561044e57600080fd5b5061032661045d366004612f57565b610b4e565b34801561046e57600080fd5b50610326610bc8565b34801561048357600080fd5b50610326610c61565b34801561049857600080fd5b506103266104a7366004612f1b565b610c97565b3480156104b857600080fd5b506103266104c7366004612ebc565b610cb2565b3480156104d857600080fd5b5061033d7f850d585eb7f024ccee5e68e55f2c26cc72e1e6ee456acf62135757a5eb9d4a1081565b34801561050c57600080fd5b50610515600181565b60405167ffffffffffffffff90911681526020016102a3565b34801561053a57600080fd5b5061033d610549366004612ebc565b610d29565b34801561055a57600080fd5b50600c5460ff16610297565b34801561057257600080fd5b506102ee610581366004612ebc565b610dbc565b34801561059257600080fd5b5061033d6105a1366004613058565b610e33565b3480156105b257600080fd5b506105bb600581565b60405160ff90911681526020016102a3565b3480156105d957600080fd5b5061033d66b1a2bc2ec5000081565b3480156105f457600080fd5b50610326610eba565b34801561060957600080fd5b506102c1610eed565b34801561061e57600080fd5b506102ee61062d366004613073565b610f7b565b34801561063e57600080fd5b5061029761064d366004612f57565b610f9a565b34801561065e57600080fd5b506102c1610fc3565b610326610675366004612ebc565b610fcd565b34801561068657600080fd5b5061033d600081565b34801561069b57600080fd5b506103266106aa366004613095565b611089565b3480156106bb57600080fd5b506103266106ca3660046130f1565b611094565b6103266106dd366004613159565b6110cc565b3480156106ee57600080fd5b5061033d6112a1565b34801561070357600080fd5b506102c1610712366004612ebc565b6112ac565b34801561072357600080fd5b5061033d610732366004612ebc565b61144b565b34801561074357600080fd5b5061033d7f9f2df0fed2c77648de5860a4cc508cd0818c85b8b8a1ab4ceeef8d981c8956a681565b34801561077757600080fd5b50610326610786366004612f57565b611462565b34801561079757600080fd5b506102c1611488565b3480156107ac57600080fd5b5061033d7f65d7a28e3265b37a6474929f336521b332c1681b933f6cb9f3376673440d862a81565b3480156107e057600080fd5b506102c161151a565b3480156107f557600080fd5b506102976108043660046131a0565b6001600160a01b03918216600090815260076020908152604080832093909416825291909152205460ff1690565b34801561083e57600080fd5b5060125461042f9061ffff1681565b600061085882611727565b92915050565b606061086861174c565b905090565b6000818152600460205260408120546001600160a01b03166108eb5760405162461bcd60e51b815260206004820152602c60248201527f4552433732313a20617070726f76656420717565727920666f72206e6f6e657860448201526b34b9ba32b73a103a37b5b2b760a11b60648201526084015b60405180910390fd5b506000908152600660205260409020546001600160a01b031690565b600061091282610dbc565b9050806001600160a01b0316836001600160a01b031614156109805760405162461bcd60e51b815260206004820152602160248201527f4552433732313a20617070726f76616c20746f2063757272656e74206f776e656044820152603960f91b60648201526084016108e2565b336001600160a01b038216148061099c575061099c8133610804565b610a0e5760405162461bcd60e51b815260206004820152603860248201527f4552433732313a20617070726f76652063616c6c6572206973206e6f74206f7760448201527f6e6572206e6f7220617070726f76656420666f7220616c6c000000000000000060648201526084016108e2565b610a18838361175b565b505050565b6000610868600d5490565b610a33335b826117c9565b610a4f5760405162461bcd60e51b81526004016108e2906131ca565b610a188383836118c0565b600082815260208190526040902060010154610a768133611a6b565b610a188383611acf565b6000610a8b83610e33565b8210610aed5760405162461bcd60e51b815260206004820152602b60248201527f455243373231456e756d657261626c653a206f776e657220696e646578206f7560448201526a74206f6620626f756e647360a81b60648201526084016108e2565b506001600160a01b03919091166000908152600860209081526040808320938352929052205490565b7f850d585eb7f024ccee5e68e55f2c26cc72e1e6ee456acf62135757a5eb9d4a10610b418133611a6b565b610b4a82611af1565b5050565b6001600160a01b0381163314610bbe5760405162461bcd60e51b815260206004820152602f60248201527f416363657373436f6e74726f6c3a2063616e206f6e6c792072656e6f756e636560448201526e103937b632b9903337b91039b2b63360891b60648201526084016108e2565b610b4a8282611b04565b6000610bd48133611a6b565b7f0000000000000000000000000000000000000000000000000000000000000000610c00600143613231565b610c0a919061325e565b6012805461ffff191661ffff929092169182179055610c32576012805461ffff191660011790555b6040514790339082156108fc029083906000818181858888f19350505050158015610a18573d6000803e3d6000fd5b7f65d7a28e3265b37a6474929f336521b332c1681b933f6cb9f3376673440d862a610c8c8133611a6b565b610c94611b26565b50565b610a1883838360405180602001604052806000815250611094565b610cbb33610a2d565b610d205760405162461bcd60e51b815260206004820152603060248201527f4552433732314275726e61626c653a2063616c6c6572206973206e6f74206f7760448201526f1b995c881b9bdc88185c1c1c9bdd995960821b60648201526084016108e2565b610c9481611bb9565b6000610d34600a5490565b8210610d975760405162461bcd60e51b815260206004820152602c60248201527f455243373231456e756d657261626c653a20676c6f62616c20696e646578206f60448201526b7574206f6620626f756e647360a01b60648201526084016108e2565b600a8281548110610daa57610daa61327f565b90600052602060002001549050919050565b6000818152600460205260408120546001600160a01b0316806108585760405162461bcd60e51b815260206004820152602960248201527f4552433732313a206f776e657220717565727920666f72206e6f6e657869737460448201526832b73a103a37b5b2b760b91b60648201526084016108e2565b60006001600160a01b038216610e9e5760405162461bcd60e51b815260206004820152602a60248201527f4552433732313a2062616c616e636520717565727920666f7220746865207a65604482015269726f206164647265737360b01b60648201526084016108e2565b506001600160a01b031660009081526005602052604090205490565b7f65d7a28e3265b37a6474929f336521b332c1681b933f6cb9f3376673440d862a610ee58133611a6b565b610c94611c60565b60118054610efa90613295565b80601f0160208091040260200160405190810160405280929190818152602001828054610f2690613295565b8015610f735780601f10610f4857610100808354040283529160200191610f73565b820191906000526020600020905b815481529060010190602001808311610f5657829003601f168201915b505050505081565b6000828152600160205260408120610f939083611cdb565b9392505050565b6000918252602082815260408084206001600160a01b0393909316845291905290205460ff1690565b6060610868611ce7565b600260105414156110205760405162461bcd60e51b815260206004820152601f60248201527f5265656e7472616e637947756172643a207265656e7472616e742063616c6c0060448201526064016108e2565b600260105560014267ffffffffffffffff1610156110775760405162461bcd60e51b815260206004820152601460248201527314d85b19481a185cc81b9bdd081cdd185c9d195960621b60448201526064016108e2565b6110818133611cf6565b506001601055565b610b4a338383611ec4565b61109e33836117c9565b6110ba5760405162461bcd60e51b81526004016108e2906131ca565b6110c684848484611f93565b50505050565b6002601054141561111f5760405162461bcd60e51b815260206004820152601f60248201527f5265656e7472616e637947756172643a207265656e7472616e742063616c6c0060448201526064016108e2565b600260105560014267ffffffffffffffff16101561117f5760405162461bcd60e51b815260206004820152601760248201527f50726573616c6520686173206e6f74207374617274656400000000000000000060448201526064016108e2565b60003390506112507f9f2df0fed2c77648de5860a4cc508cd0818c85b8b8a1ab4ceeef8d981c8956a661064d61124a846040516020016111ea919069185d5d1a1bdc9a5e995960b21b815260609190911b6bffffffffffffffffffffffff1916600a820152601e0190565b60408051601f1981840301815282825280516020918201207f19457468657265756d205369676e6564204d6573736167653a0a33320000000084830152603c8085019190915282518085039091018152605c909301909152815191012090565b85611fc6565b61128d5760405162461bcd60e51b815260206004820152600e60248201526d24b73b30b634b210383937b7b31760911b60448201526064016108e2565b6112978382611cf6565b5050600160105550565b6000610868600f5490565b60125460609061ffff166113025760405162461bcd60e51b815260206004820152601b60248201527f436f6c6c656374696f6e206e6f742072656c656173656420796574000000000060448201526064016108e2565b6000828152600460205260409020546001600160a01b03166113665760405162461bcd60e51b815260206004820152601f60248201527f55524920717565727920666f72206e6f6e6578697374656e7420746f6b656e0060448201526064016108e2565b600482116113b357611376611488565b601161138b611386856001611fea565b611ff6565b60405160200161139d9392919061336a565b6040516020818303038152906040529050919050565b600061140d60046114016113e7827f00000000000000000000000000000000000000000000000000000000000000006133c3565b60125461ffff918216916114079116611401896004611fea565b906120f4565b90612100565b9050611417611488565b601161142283611ff6565b6040516020016114349392919061336a565b604051602081830303815290604052915050919050565b60008181526001602052604081206108589061210c565b60008281526020819052604090206001015461147e8133611a6b565b610a188383611b04565b6060600e805461149790613295565b80601f01602080910402602001604051908101604052809291908181526020018280546114c390613295565b80156115105780601f106114e557610100808354040283529160200191611510565b820191906000526020600020905b8154815290600101906020018083116114f357829003601f168201915b5050505050905090565b6060611524611488565b60116040516020016115379291906133e6565b604051602081830303815290604052905090565b80546001019055565b61155e8282610f9a565b610b4a576000828152602081815260408083206001600160a01b03851684529091529020805460ff191660011790556115943390565b6001600160a01b0316816001600160a01b0316837f2f8788117e7eff1d82e926ec794901d17c78024a50270940304540a733656f0d60405160405180910390a45050565b6000610f93836001600160a01b038416612116565b600d5490565b5490565b3b151590565b61160883838361166f565b600c5460ff1615610a185760405162461bcd60e51b815260206004820152602b60248201527f4552433732315061757361626c653a20746f6b656e207472616e73666572207760448201526a1a1a5b19481c185d5cd95960aa1b60648201526084016108e2565b6001600160a01b0383166116ca576116c581600a80546000838152600b60205260408120829055600182018355919091527fc65a7bb8d6351c1cf70c95a316cc6a92839c986682d98bc35f958f4883f9d2a80155565b6116ed565b816001600160a01b0316836001600160a01b0316146116ed576116ed8382612165565b6001600160a01b03821661170457610a1881612202565b826001600160a01b0316826001600160a01b031614610a1857610a1882826122b1565b60006001600160e01b0319821663780e9d6360e01b14806108585750610858826122f5565b60606002805461149790613295565b600081815260066020526040902080546001600160a01b0319166001600160a01b038416908117909155819061179082610dbc565b6001600160a01b03167f8c5be1e5ebec7d5bd14f71427d1e84f3dd0314c0f7b2291e5b200ac8c7c3b92560405160405180910390a45050565b6000818152600460205260408120546001600160a01b03166118425760405162461bcd60e51b815260206004820152602c60248201527f4552433732313a206f70657261746f7220717565727920666f72206e6f6e657860448201526b34b9ba32b73a103a37b5b2b760a11b60648201526084016108e2565b600061184d83610dbc565b9050806001600160a01b0316846001600160a01b031614806118885750836001600160a01b031661187d8461086d565b6001600160a01b0316145b806118b857506001600160a01b0380821660009081526007602090815260408083209388168352929052205460ff165b949350505050565b826001600160a01b03166118d382610dbc565b6001600160a01b03161461193b5760405162461bcd60e51b815260206004820152602960248201527f4552433732313a207472616e73666572206f6620746f6b656e2074686174206960448201526839903737ba1037bbb760b91b60648201526084016108e2565b6001600160a01b03821661199d5760405162461bcd60e51b8152602060048201526024808201527f4552433732313a207472616e7366657220746f20746865207a65726f206164646044820152637265737360e01b60648201526084016108e2565b6119a8838383612335565b6119b360008261175b565b6001600160a01b03831660009081526005602052604081208054600192906119dc908490613231565b90915550506001600160a01b0382166000908152600560205260408120805460019290611a0a908490613424565b909155505060008181526004602052604080822080546001600160a01b0319166001600160a01b0386811691821790925591518493918716917fddf252ad1be2c89b69c2b068fc378daa952ba7f163c4a11628f55a4df523b3ef91a4505050565b611a758282610f9a565b610b4a57611a8d816001600160a01b03166014612340565b611a98836020612340565b604051602001611aa992919061343c565b60408051601f198184030181529082905262461bcd60e51b82526108e291600401612ea9565b611ad98282611554565b6000828152600160205260409020610a1890826115d8565b8051610b4a90600e906020840190612d85565b611b0e82826124dc565b6000828152600160205260409020610a189082612541565b600c5460ff16611b6f5760405162461bcd60e51b815260206004820152601460248201527314185d5cd8589b194e881b9bdd081c185d5cd95960621b60448201526064016108e2565b600c805460ff191690557f5db9ee0a495bf2e6ff9c91a7834c1ba4fdd244a5e8aa4e537bd38aeae4b073aa335b6040516001600160a01b03909116815260200160405180910390a1565b6000611bc482610dbc565b9050611bd281600084612335565b611bdd60008361175b565b6001600160a01b0381166000908152600560205260408120805460019290611c06908490613231565b909155505060008281526004602052604080822080546001600160a01b0319169055518391906001600160a01b038416907fddf252ad1be2c89b69c2b068fc378daa952ba7f163c4a11628f55a4df523b3ef908390a45050565b600c5460ff1615611ca65760405162461bcd60e51b815260206004820152601060248201526f14185d5cd8589b194e881c185d5cd95960821b60448201526064016108e2565b600c805460ff191660011790557f62e78cea01bee320cd4e420270b5ea74000d11b0c9f74754ebdbfc544b05a258611b9c3390565b6000610f938383612556565b60606003805461149790613295565b6001600160a01b038116611d405760405162461bcd60e51b8152602060048201526011602482015270125b9d985b1a59081c9958da5c1a595b9d607a1b60448201526064016108e2565b81611d4a57600191505b6005611d5f611d5883610e33565b84906120f4565b1115611dad5760405162461bcd60e51b815260206004820152601d60248201527f43616e6e6f74206d696e74206d6f7265207468616e20616c6c6f77656400000060448201526064016108e2565b34611dbf8366b1a2bc2ec50000612580565b1115611e0d5760405162461bcd60e51b815260206004820152601a60248201527f416d6f756e742073656e74206973206e6f7420636f727265637400000000000060448201526064016108e2565b7f000000000000000000000000000000000000000000000000000000000000000061ffff16611e3e83611401610a1d565b1115611e9e5760405162461bcd60e51b815260206004820152602960248201527f416d6f756e74206578636565647320746f74616c20616c6c6f7761626c65206360448201526837b63632b1ba34b7b760b91b60648201526084016108e2565b60005b82811015610a1857611eb28261258c565b80611ebc816134b1565b915050611ea1565b816001600160a01b0316836001600160a01b03161415611f265760405162461bcd60e51b815260206004820152601960248201527f4552433732313a20617070726f766520746f2063616c6c65720000000000000060448201526064016108e2565b6001600160a01b03838116600081815260076020908152604080832094871680845294825291829020805460ff191686151590811790915591519182527f17307eab39ab6107e8899845ad3d59bd9653f200f220920489ca2b5937696c31910160405180910390a3505050565b611f9e8484846118c0565b611faa8484848461262f565b6110c65760405162461bcd60e51b81526004016108e2906134cc565b6000806000611fd5858561273c565b91509150611fe2816127ac565b509392505050565b6000610f938284613231565b60608161201a5750506040805180820190915260018152600360fc1b602082015290565b8160005b8115612044578061202e816134b1565b915061203d9050600a8361351e565b915061201e565b60008167ffffffffffffffff81111561205f5761205f612f83565b6040519080825280601f01601f191660200182016040528015612089576020820181803683370190505b5090505b84156118b85761209e600183613231565b91506120ab600a86613532565b6120b6906030613424565b60f81b8183815181106120cb576120cb61327f565b60200101906001600160f81b031916908160001a9053506120ed600a8661351e565b945061208d565b6000610f938284613424565b6000610f938284613532565b6000610858825490565b600081815260018301602052604081205461215d57508154600181810184556000848152602080822090930184905584548482528286019093526040902091909155610858565b506000610858565b6000600161217284610e33565b61217c9190613231565b6000838152600960205260409020549091508082146121cf576001600160a01b03841660009081526008602090815260408083208584528252808320548484528184208190558352600990915290208190555b5060009182526009602090815260408084208490556001600160a01b039094168352600881528383209183525290812055565b600a5460009061221490600190613231565b6000838152600b6020526040812054600a805493945090928490811061223c5761223c61327f565b9060005260206000200154905080600a838154811061225d5761225d61327f565b6000918252602080832090910192909255828152600b9091526040808220849055858252812055600a80548061229557612295613546565b6001900381819060005260206000200160009055905550505050565b60006122bc83610e33565b6001600160a01b039093166000908152600860209081526040808320868452825280832085905593825260099052919091209190915550565b60006001600160e01b031982166380ac58cd60e01b148061232657506001600160e01b03198216635b5e139f60e01b145b80610858575061085882612967565b610a188383836115fd565b6060600061234f83600261355c565b61235a906002613424565b67ffffffffffffffff81111561237257612372612f83565b6040519080825280601f01601f19166020018201604052801561239c576020820181803683370190505b509050600360fc1b816000815181106123b7576123b761327f565b60200101906001600160f81b031916908160001a905350600f60fb1b816001815181106123e6576123e661327f565b60200101906001600160f81b031916908160001a905350600061240a84600261355c565b612415906001613424565b90505b600181111561248d576f181899199a1a9b1b9c1cb0b131b232b360811b85600f16601081106124495761244961327f565b1a60f81b82828151811061245f5761245f61327f565b60200101906001600160f81b031916908160001a90535060049490941c936124868161357b565b9050612418565b508315610f935760405162461bcd60e51b815260206004820181905260248201527f537472696e67733a20686578206c656e67746820696e73756666696369656e7460448201526064016108e2565b6124e68282610f9a565b15610b4a576000828152602081815260408083206001600160a01b0385168085529252808320805460ff1916905551339285917ff6391f5c32d9c69d2a47ea670b442974b53935d1edc7fd64eb21e047a839171b9190a45050565b6000610f93836001600160a01b03841661298c565b600082600001828154811061256d5761256d61327f565b9060005260206000200154905092915050565b6000610f93828461355c565b7f000000000000000000000000000000000000000000000000000000000000000061ffff166125b9610a1d565b106126065760405162461bcd60e51b815260206004820152601b60248201527f4d696e742071756f746120686173206265656e2072656163686564000000000060448201526064016108e2565b612614600f80546001019055565b612625816126206112a1565b612a7f565b610c946001612a99565b60006001600160a01b0384163b1561273157604051630a85bd0160e11b81526001600160a01b0385169063150b7a0290612673903390899088908890600401613592565b602060405180830381600087803b15801561268d57600080fd5b505af19250505080156126bd575060408051601f3d908101601f191682019092526126ba918101906135cf565b60015b612717573d8080156126eb576040519150601f19603f3d011682016040523d82523d6000602084013e6126f0565b606091505b50805161270f5760405162461bcd60e51b81526004016108e2906134cc565b805181602001fd5b6001600160e01b031916630a85bd0160e11b1490506118b8565b506001949350505050565b6000808251604114156127735760208301516040840151606085015160001a61276787828585612ab3565b945094505050506127a5565b82516040141561279d5760208301516040840151612792868383612ba0565b9350935050506127a5565b506000905060025b9250929050565b60008160048111156127c0576127c06135ec565b14156127c95750565b60018160048111156127dd576127dd6135ec565b141561282b5760405162461bcd60e51b815260206004820152601860248201527f45434453413a20696e76616c6964207369676e6174757265000000000000000060448201526064016108e2565b600281600481111561283f5761283f6135ec565b141561288d5760405162461bcd60e51b815260206004820152601f60248201527f45434453413a20696e76616c6964207369676e6174757265206c656e6774680060448201526064016108e2565b60038160048111156128a1576128a16135ec565b14156128fa5760405162461bcd60e51b815260206004820152602260248201527f45434453413a20696e76616c6964207369676e6174757265202773272076616c604482015261756560f01b60648201526084016108e2565b600481600481111561290e5761290e6135ec565b1415610c945760405162461bcd60e51b815260206004820152602260248201527f45434453413a20696e76616c6964207369676e6174757265202776272076616c604482015261756560f01b60648201526084016108e2565b60006001600160e01b03198216635a05180f60e01b1480610858575061085882612bcf565b60008181526001830160205260408120548015612a755760006129b0600183613231565b85549091506000906129c490600190613231565b9050818114612a295760008660000182815481106129e4576129e461327f565b9060005260206000200154905080876000018481548110612a0757612a0761327f565b6000918252602080832090910192909255918252600188019052604090208390555b8554869080612a3a57612a3a613546565b600190038181906000526020600020016000905590558560010160008681526020019081526020016000206000905560019350505050610858565b6000915050610858565b610b4a828260405180602001604052806000815250612c04565b80600d6000828254612aab9190613424565b909155505050565b6000807f7fffffffffffffffffffffffffffffff5d576e7357a4501ddfe92f46681b20a0831115612aea5750600090506003612b97565b8460ff16601b14158015612b0257508460ff16601c14155b15612b135750600090506004612b97565b6040805160008082526020820180845289905260ff881692820192909252606081018690526080810185905260019060a0016020604051602081039080840390855afa158015612b67573d6000803e3d6000fd5b5050604051601f1901519150506001600160a01b038116612b9057600060019250925050612b97565b9150600090505b94509492505050565b6000806001600160ff1b03831660ff84901c601b01612bc187828885612ab3565b935093505050935093915050565b60006001600160e01b03198216637965db0b60e01b148061085857506301ffc9a760e01b6001600160e01b0319831614610858565b612c0e8383612c37565b612c1b600084848461262f565b610a185760405162461bcd60e51b81526004016108e2906134cc565b6001600160a01b038216612c8d5760405162461bcd60e51b815260206004820181905260248201527f4552433732313a206d696e7420746f20746865207a65726f206164647265737360448201526064016108e2565b6000818152600460205260409020546001600160a01b031615612cf25760405162461bcd60e51b815260206004820152601c60248201527f4552433732313a20746f6b656e20616c7265616479206d696e7465640000000060448201526064016108e2565b612cfe60008383612335565b6001600160a01b0382166000908152600560205260408120805460019290612d27908490613424565b909155505060008181526004602052604080822080546001600160a01b0319166001600160a01b03861690811790915590518392907fddf252ad1be2c89b69c2b068fc378daa952ba7f163c4a11628f55a4df523b3ef908290a45050565b828054612d9190613295565b90600052602060002090601f016020900481019282612db35760008555612df9565b82601f10612dcc57805160ff1916838001178555612df9565b82800160010185558215612df9579182015b82811115612df9578251825591602001919060010190612dde565b50612e05929150612e09565b5090565b5b80821115612e055760008155600101612e0a565b6001600160e01b031981168114610c9457600080fd5b600060208284031215612e4657600080fd5b8135610f9381612e1e565b60005b83811015612e6c578181015183820152602001612e54565b838111156110c65750506000910152565b60008151808452612e95816020860160208601612e51565b601f01601f19169290920160200192915050565b602081526000610f936020830184612e7d565b600060208284031215612ece57600080fd5b5035919050565b80356001600160a01b0381168114612eec57600080fd5b919050565b60008060408385031215612f0457600080fd5b612f0d83612ed5565b946020939093013593505050565b600080600060608486031215612f3057600080fd5b612f3984612ed5565b9250612f4760208501612ed5565b9150604084013590509250925092565b60008060408385031215612f6a57600080fd5b82359150612f7a60208401612ed5565b90509250929050565b634e487b7160e01b600052604160045260246000fd5b600067ffffffffffffffff80841115612fb457612fb4612f83565b604051601f8501601f19908116603f01168101908282118183101715612fdc57612fdc612f83565b81604052809350858152868686011115612ff557600080fd5b858560208301376000602087830101525050509392505050565b60006020828403121561302157600080fd5b813567ffffffffffffffff81111561303857600080fd5b8201601f8101841361304957600080fd5b6118b884823560208401612f99565b60006020828403121561306a57600080fd5b610f9382612ed5565b6000806040838503121561308657600080fd5b50508035926020909101359150565b600080604083850312156130a857600080fd5b6130b183612ed5565b9150602083013580151581146130c657600080fd5b809150509250929050565b600082601f8301126130e257600080fd5b610f9383833560208501612f99565b6000806000806080858703121561310757600080fd5b61311085612ed5565b935061311e60208601612ed5565b925060408501359150606085013567ffffffffffffffff81111561314157600080fd5b61314d878288016130d1565b91505092959194509250565b6000806040838503121561316c57600080fd5b82359150602083013567ffffffffffffffff81111561318a57600080fd5b613196858286016130d1565b9150509250929050565b600080604083850312156131b357600080fd5b6131bc83612ed5565b9150612f7a60208401612ed5565b60208082526031908201527f4552433732313a207472616e736665722063616c6c6572206973206e6f74206f6040820152701ddb995c881b9bdc88185c1c1c9bdd9959607a1b606082015260800190565b634e487b7160e01b600052601160045260246000fd5b6000828210156132435761324361321b565b500390565b634e487b7160e01b600052601260045260246000fd5b600061ffff8084168061327357613273613248565b92169190910692915050565b634e487b7160e01b600052603260045260246000fd5b600181811c908216806132a957607f821691505b602082108114156132ca57634e487b7160e01b600052602260045260246000fd5b50919050565b8054600090600181811c90808316806132ea57607f831692505b602080841082141561330c57634e487b7160e01b600052602260045260246000fd5b81801561332057600181146133315761335e565b60ff1986168952848901965061335e565b60008881526020902060005b868110156133565781548b82015290850190830161333d565b505084890196505b50505050505092915050565b6000845161337c818460208901612e51565b613388818401866132d0565b9050602f60f81b815283516133a4816001840160208801612e51565b64173539b7b760d91b6001929091019182015260060195945050505050565b600061ffff838116908316818110156133de576133de61321b565b039392505050565b600083516133f8818460208801612e51565b613404818401856132d0565b6d17b1b7b73a3930b1ba173539b7b760911b8152600e0195945050505050565b600082198211156134375761343761321b565b500190565b7f416363657373436f6e74726f6c3a206163636f756e7420000000000000000000815260008351613474816017850160208801612e51565b7001034b99036b4b9b9b4b733903937b6329607d1b60179184019182015283516134a5816028840160208801612e51565b01602801949350505050565b60006000198214156134c5576134c561321b565b5060010190565b60208082526032908201527f4552433732313a207472616e7366657220746f206e6f6e20455243373231526560408201527131b2b4bb32b91034b6b83632b6b2b73a32b960711b606082015260800190565b60008261352d5761352d613248565b500490565b60008261354157613541613248565b500690565b634e487b7160e01b600052603160045260246000fd5b60008160001904831182151516156135765761357661321b565b500290565b60008161358a5761358a61321b565b506000190190565b6001600160a01b03858116825284166020820152604081018390526080606082018190526000906135c590830184612e7d565b9695505050505050565b6000602082840312156135e157600080fd5b8151610f9381612e1e565b634e487b7160e01b600052602160045260246000fdfea26469706673582212207a2577515a27610435ecbe517f98a4a35f34c5c974a0837d9450731365a3b59864736f6c634300080900334552433732313a207472616e7366657220746f206e6f6e204552433732315265",
  "linkReferences": {},
  "deployedLinkReferences": {}
}